{
  "address": "0xFb0903ce7B1Daf61C013a1Fb30a06F1224536711",
  "abi": [
    {
      "inputs": [
        {
          "internalType": "address",
          "name": "_agiToken",
          "type": "address"
        },
        {
          "internalType": "address",
          "name": "_oracle",
          "type": "address"
        },
        {
          "internalType": "address",
          "name": "_treasury",
          "type": "address"
        },
        {
          "internalType": "address",
          "name": "_dex",
          "type": "address"
        },
        {
          "internalType": "address",
          "name": "_wavax",
          "type": "address"
        },
        {
          "internalType": "address",
          "name": "initialOwner",
          "type": "address"
        }
      ],
      "stateMutability": "nonpayable",
      "type": "constructor"
    },
    {
      "inputs": [
        {
          "internalType": "address",
          "name": "owner",
          "type": "address"
        }
      ],
      "name": "OwnableInvalidOwner",
      "type": "error"
    },
    {
      "inputs": [
        {
          "internalType": "address",
          "name": "account",
          "type": "address"
        }
      ],
      "name": "OwnableUnauthorizedAccount",
      "type": "error"
    },
    {
      "anonymous": false,
      "inputs": [
        {
          "indexed": true,
          "internalType": "uint256",
          "name": "fundId",
          "type": "uint256"
        },
        {
          "indexed": true,
          "internalType": "address",
          "name": "creator",
          "type": "address"
        },
        {
          "indexed": false,
          "internalType": "string",
          "name": "fundName",
          "type": "string"
        },
        {
          "indexed": false,
          "internalType": "string",
          "name": "fundTicker",
          "type": "string"
        },
        {
          "indexed": false,
          "internalType": "address",
          "name": "fundAddress",
          "type": "address"
        },
        {
          "indexed": false,
          "internalType": "address[]",
          "name": "underlyingTokens",
          "type": "address[]"
        }
      ],
      "name": "FundCreated",
      "type": "event"
    },
    {
      "anonymous": false,
      "inputs": [
        {
          "indexed": true,
          "internalType": "address",
          "name": "previousOwner",
          "type": "address"
        },
        {
          "indexed": true,
          "internalType": "address",
          "name": "newOwner",
          "type": "address"
        }
      ],
      "name": "OwnershipTransferred",
      "type": "event"
    },
    {
      "inputs": [],
      "name": "FUND_CREATION_FEE",
      "outputs": [
        {
          "internalType": "uint256",
          "name": "",
          "type": "uint256"
        }
      ],
      "stateMutability": "view",
      "type": "function"
    },
    {
      "inputs": [],
      "name": "agiToken",
      "outputs": [
        {
          "internalType": "contract AGIToken",
          "name": "",
          "type": "address"
        }
      ],
      "stateMutability": "view",
      "type": "function"
    },
    {
      "inputs": [
        {
          "internalType": "string",
          "name": "fundName",
          "type": "string"
        },
        {
          "internalType": "string",
          "name": "fundTicker",
          "type": "string"
        },
        {
          "internalType": "address[]",
          "name": "tokens",
          "type": "address[]"
        }
      ],
      "name": "createFund",
      "outputs": [],
      "stateMutability": "nonpayable",
      "type": "function"
    },
    {
      "inputs": [],
      "name": "creationFee",
      "outputs": [
        {
          "internalType": "uint256",
          "name": "",
          "type": "uint256"
        }
      ],
      "stateMutability": "pure",
      "type": "function"
    },
    {
      "inputs": [
        {
          "internalType": "address",
          "name": "",
          "type": "address"
        },
        {
          "internalType": "uint256",
          "name": "",
          "type": "uint256"
        }
      ],
      "name": "creatorFunds",
      "outputs": [
        {
          "internalType": "uint256",
          "name": "",
          "type": "uint256"
        }
      ],
      "stateMutability": "view",
      "type": "function"
    },
    {
      "inputs": [],
      "name": "dex",
      "outputs": [
        {
          "internalType": "address",
          "name": "",
          "type": "address"
        }
      ],
      "stateMutability": "view",
      "type": "function"
    },
    {
      "inputs": [
        {
          "internalType": "uint256",
          "name": "",
          "type": "uint256"
        }
      ],
      "name": "fundById",
      "outputs": [
        {
          "internalType": "contract Fund",
          "name": "",
          "type": "address"
        }
      ],
      "stateMutability": "view",
      "type": "function"
    },
    {
      "inputs": [
        {
          "internalType": "uint256",
          "name": "",
          "type": "uint256"
        }
      ],
      "name": "funds",
      "outputs": [
        {
          "internalType": "contract Fund",
          "name": "",
          "type": "address"
        }
      ],
      "stateMutability": "view",
      "type": "function"
    },
    {
      "inputs": [
        {
          "internalType": "address",
          "name": "creator",
          "type": "address"
        }
      ],
      "name": "getCreatorFunds",
      "outputs": [
        {
          "internalType": "uint256[]",
          "name": "",
          "type": "uint256[]"
        }
      ],
      "stateMutability": "view",
      "type": "function"
    },
    {
      "inputs": [
        {
          "internalType": "uint256",
          "name": "fundId",
          "type": "uint256"
        }
      ],
      "name": "getFund",
      "outputs": [
        {
          "internalType": "address",
          "name": "fundAddress",
          "type": "address"
        },
        {
          "internalType": "string",
          "name": "fundName",
          "type": "string"
        },
        {
          "internalType": "string",
          "name": "fundTicker",
          "type": "string"
        },
        {
          "internalType": "address[]",
          "name": "underlyingTokens",
          "type": "address[]"
        }
      ],
      "stateMutability": "view",
      "type": "function"
    },
    {
      "inputs": [
        {
          "internalType": "uint256",
          "name": "startIndex",
          "type": "uint256"
        },
        {
          "internalType": "uint256",
          "name": "endIndex",
          "type": "uint256"
        }
      ],
      "name": "getFunds",
      "outputs": [
        {
          "internalType": "address[]",
          "name": "",
          "type": "address[]"
        }
      ],
      "stateMutability": "view",
      "type": "function"
    },
    {
      "inputs": [],
      "name": "getTotalFunds",
      "outputs": [
        {
          "internalType": "uint256",
          "name": "",
          "type": "uint256"
        }
      ],
      "stateMutability": "view",
      "type": "function"
    },
    {
      "inputs": [],
      "name": "oracle",
      "outputs": [
        {
          "internalType": "address",
          "name": "",
          "type": "address"
        }
      ],
      "stateMutability": "view",
      "type": "function"
    },
    {
      "inputs": [],
      "name": "owner",
      "outputs": [
        {
          "internalType": "address",
          "name": "",
          "type": "address"
        }
      ],
      "stateMutability": "view",
      "type": "function"
    },
    {
      "inputs": [],
      "name": "renounceOwnership",
      "outputs": [],
      "stateMutability": "nonpayable",
      "type": "function"
    },
    {
      "inputs": [
        {
          "internalType": "address",
          "name": "newOwner",
          "type": "address"
        }
      ],
      "name": "transferOwnership",
      "outputs": [],
      "stateMutability": "nonpayable",
      "type": "function"
    },
    {
      "inputs": [],
      "name": "treasury",
      "outputs": [
        {
          "internalType": "address",
          "name": "",
          "type": "address"
        }
      ],
      "stateMutability": "view",
      "type": "function"
    },
    {
      "inputs": [
        {
          "internalType": "address",
          "name": "newAgiToken",
          "type": "address"
        }
      ],
      "name": "updateAgiToken",
      "outputs": [],
      "stateMutability": "nonpayable",
      "type": "function"
    },
    {
      "inputs": [
        {
          "internalType": "address",
          "name": "newDex",
          "type": "address"
        }
      ],
      "name": "updateDex",
      "outputs": [],
      "stateMutability": "nonpayable",
      "type": "function"
    },
    {
      "inputs": [
        {
          "internalType": "address",
          "name": "newOracle",
          "type": "address"
        }
      ],
      "name": "updateOracle",
      "outputs": [],
      "stateMutability": "nonpayable",
      "type": "function"
    },
    {
      "inputs": [
        {
          "internalType": "address",
          "name": "newTreasury",
          "type": "address"
        }
      ],
      "name": "updateTreasury",
      "outputs": [],
      "stateMutability": "nonpayable",
      "type": "function"
    },
    {
      "inputs": [
        {
          "internalType": "address",
          "name": "newWavax",
          "type": "address"
        }
      ],
      "name": "updateWavax",
      "outputs": [],
      "stateMutability": "nonpayable",
      "type": "function"
    },
    {
      "inputs": [],
      "name": "wavax",
      "outputs": [
        {
          "internalType": "address",
          "name": "",
          "type": "address"
        }
      ],
      "stateMutability": "view",
      "type": "function"
    }
  ],
  "transactionHash": "0x3188f0ba1a5fef83097522738b54675249b4fead5bf17e005f9fe7aff58bff3f",
  "args": [
    "0xefaAE152f5cFcbe84306aeC25a1Ce593B3c34227",
    "0x3C8aFa3DB81119aE323DcDBeB92203ecfe9B8A76",
    "0xe63D399611EA823F7442b78d43F972fF61D7b05C",
    "0x2D99ABD9008Dc933ff5c0CD271B88309593aB921",
    "0xd00ae08403B9bbb9124bB305C09058E32C39A48c",
    "0xe63D399611EA823F7442b78d43F972fF61D7b05C"
  ],
  "numDeployments": 1,
  "solcInputHash": "ecfaaea14e462492c7162c20e73f855d",
  "bytecode": "0x60806040523480156200001157600080fd5b50604051620042ee380380620042ee833981016040819052620000349162000141565b806001600160a01b0381166200006457604051631e4fbdf760e01b81526000600482015260240160405180910390fd5b6200006f81620000d4565b5050600180546001600160a01b03199081166001600160a01b03978816179091556002805482169587169590951790945560038054851693861693909317909255600480548416918516919091179055600580549092169216919091179055620001c2565b600080546001600160a01b038381166001600160a01b0319831681178455604051919092169283917f8be0079c531659141344cd1fd0a4f28419497f9722a3daafe3b4186f6b6457e09190a35050565b80516001600160a01b03811681146200013c57600080fd5b919050565b60008060008060008060c087890312156200015b57600080fd5b620001668762000124565b9550620001766020880162000124565b9450620001866040880162000124565b9350620001966060880162000124565b9250620001a66080880162000124565b9150620001b660a0880162000124565b90509295509295509295565b61411c80620001d26000396000f3fe60806040523480156200001157600080fd5b5060043610620001695760003560e01c80637a862c6a11620000d3578063aef1be9a1162000086578063aef1be9a146200031d578063d8c149e01462000349578063dce0b4e41462000360578063df12f8c51462000370578063eb8bbd281462000396578063f2fde38b146200039f57600080fd5b80637a862c6a146200028c5780637b8e889514620002b25780637dc0d1d014620002c95780637f51bb1f14620002dd57806387f4637b14620002f45780638da5cb5b146200030b57600080fd5b806361d027b3116200012c57806361d027b3146200020f578063658bb5431462000223578063692058c21462000237578063715018a6146200024b57806373ebd017146200025557806374b4eafe146200026c57600080fd5b8063117be4c2146200016e57806319dc94a6146200019f5780631bd6090014620001b85780631cb44dfc14620001cf57806352c8df6414620001e6575b600080fd5b60055462000182906001600160a01b031681565b6040516001600160a01b0390911681526020015b60405180910390f35b620001b6620001b0366004620010ec565b620003b6565b005b620001b6620001c9366004620010ec565b62000436565b620001b6620001e0366004620010ec565b620004b0565b620001fd620001f736600462001113565b6200052d565b604051620001969493929190620011c7565b60035462000182906001600160a01b031681565b60015462000182906001600160a01b031681565b60045462000182906001600160a01b031681565b620001b6620006f5565b620001b6620002663660046200131a565b6200070d565b6200027d683635c9adc5dea0000081565b60405190815260200162000196565b620002a36200029d36600462001412565b62000c4d565b60405162000196919062001435565b62000182620002c336600462001113565b62000e32565b60025462000182906001600160a01b031681565b620001b6620002ee366004620010ec565b62000e5d565b620001b662000305366004620010ec565b62000ee1565b6000546001600160a01b031662000182565b620001826200032e36600462001113565b6007602052600090815260409020546001600160a01b031681565b6200027d6200035a3660046200144a565b62000f65565b683635c9adc5dea000006200027d565b6200038762000381366004620010ec565b62000f97565b60405162000196919062001479565b6006546200027d565b620001b6620003b0366004620010ec565b62001005565b620003c062001049565b6001600160a01b038116620004145760405162461bcd60e51b8152602060048201526015602482015274496e76616c6964205741564158206164647265737360581b60448201526064015b60405180910390fd5b600580546001600160a01b0319166001600160a01b0392909216919091179055565b6200044062001049565b6001600160a01b0381166200048e5760405162461bcd60e51b8152602060048201526013602482015272496e76616c696420444558206164647265737360681b60448201526064016200040b565b600480546001600160a01b0319166001600160a01b0392909216919091179055565b620004ba62001049565b6001600160a01b0381166200050b5760405162461bcd60e51b8152602060048201526016602482015275496e76616c6964206f7261636c65206164647265737360501b60448201526064016200040b565b600280546001600160a01b0319166001600160a01b0392909216919091179055565b600060608060606006805490508510620005805760405162461bcd60e51b8152602060048201526013602482015272119d5b9908191bd95cc81b9bdd08195e1a5cdd606a1b60448201526064016200040b565b600060068681548110620005985762000598620014bf565b600091825260208220015460408051639ce1413b60e01b815290516001600160a01b0390921697508793508392639ce1413b926004808401938290030181865afa158015620005eb573d6000803e3d6000fd5b505050506040513d6000823e601f3d908101601f19168201604052620006159190810190620014d5565b9350806001600160a01b031663c0e547a36040518163ffffffff1660e01b8152600401600060405180830381865afa15801562000656573d6000803e3d6000fd5b505050506040513d6000823e601f3d908101601f19168201604052620006809190810190620014d5565b9250806001600160a01b031663d95bd6c96040518163ffffffff1660e01b8152600401600060405180830381865afa158015620006c1573d6000803e3d6000fd5b505050506040513d6000823e601f3d908101601f19168201604052620006eb919081019062001555565b9150509193509193565b620006ff62001049565b6200070b600062001078565b565b6000835111620007605760405162461bcd60e51b815260206004820152601960248201527f46756e64206e616d652063616e6e6f7420626520656d7074790000000000000060448201526064016200040b565b6000825111620007b35760405162461bcd60e51b815260206004820152601b60248201527f46756e64207469636b65722063616e6e6f7420626520656d707479000000000060448201526064016200040b565b6000815111620008065760405162461bcd60e51b815260206004820152601c60248201527f4d7573742068617665206174206c65617374206f6e6520746f6b656e0000000060448201526064016200040b565b6014815111156200085a5760405162461bcd60e51b815260206004820152601a60248201527f4d6178696d756d20323020746f6b656e73207065722066756e6400000000000060448201526064016200040b565b60005b8151811015620009c15760006001600160a01b0316828281518110620008875762000887620014bf565b60200260200101516001600160a01b031603620008df5760405162461bcd60e51b8152602060048201526015602482015274496e76616c696420746f6b656e206164647265737360581b60448201526064016200040b565b6000620008ee82600162001605565b90505b8251811015620009ab57828181518110620009105762000910620014bf565b60200260200101516001600160a01b0316838381518110620009365762000936620014bf565b60200260200101516001600160a01b031603620009965760405162461bcd60e51b815260206004820152601c60248201527f4475706c696361746520746f6b656e73206e6f7420616c6c6f7765640000000060448201526064016200040b565b80620009a2816200161b565b915050620008f1565b5080620009b8816200161b565b9150506200085d565b506001546040516370a0823160e01b8152336004820152683635c9adc5dea00000916001600160a01b0316906370a0823190602401602060405180830381865afa15801562000a14573d6000803e3d6000fd5b505050506040513d601f19601f8201168201806040525081019062000a3a919062001637565b101562000aa15760405162461bcd60e51b815260206004820152602e60248201527f496e73756666696369656e74204147492062616c616e636520666f722066756e60448201526d64206372656174696f6e2066656560901b60648201526084016200040b565b60015460405163079cc67960e41b8152336004820152683635c9adc5dea0000060248201526001600160a01b03909116906379cc679090604401600060405180830381600087803b15801562000af657600080fd5b505af115801562000b0b573d6000803e3d6000fd5b5050600254600354600454600554604051600096508995508894889433946001600160a01b039283169491831693908316929091169062000b4c90620010c8565b62000b5f98979695949392919062001651565b604051809103906000f08015801562000b7c573d6000803e3d6000fd5b506006805460018082019092557ff652222313e28459528d920b65115c16c04f3efc82aaedc97be59f3f377c0d3f810180546001600160a01b0385166001600160a01b03199182168117909255600083815260076020908152604080832080549094169094179092553380825260088352838220805496870181558252919020909301829055519293509182907fed347e9f5d6a8c19fdf08c48cd262b1de465d28cb92c4032b2af21f0d3eef93f9062000c3e908990899088908a90620016d0565b60405180910390a35050505050565b600654606090831062000ca35760405162461bcd60e51b815260206004820152601960248201527f537461727420696e646578206f7574206f6620626f756e64730000000000000060448201526064016200040b565b60065482111562000cf75760405162461bcd60e51b815260206004820152601760248201527f456e6420696e646578206f7574206f6620626f756e647300000000000000000060448201526064016200040b565b8183111562000d3f5760405162461bcd60e51b8152602060048201526013602482015272496e76616c696420696e6465782072616e676560681b60448201526064016200040b565b600062000d4d84846200171e565b905060008167ffffffffffffffff81111562000d6d5762000d6d62001222565b60405190808252806020026020018201604052801562000d97578160200160208202803683370190505b50905060005b8281101562000e2757600662000db4828862001605565b8154811062000dc75762000dc7620014bf565b9060005260206000200160009054906101000a90046001600160a01b031682828151811062000dfa5762000dfa620014bf565b6001600160a01b03909216602092830291909101909101528062000e1e816200161b565b91505062000d9d565b509150505b92915050565b6006818154811062000e4357600080fd5b6000918252602090912001546001600160a01b0316905081565b62000e6762001049565b6001600160a01b03811662000ebf5760405162461bcd60e51b815260206004820152601860248201527f496e76616c69642074726561737572792061646472657373000000000000000060448201526064016200040b565b600380546001600160a01b0319166001600160a01b0392909216919091179055565b62000eeb62001049565b6001600160a01b03811662000f435760405162461bcd60e51b815260206004820152601960248201527f496e76616c69642041474920746f6b656e20616464726573730000000000000060448201526064016200040b565b600180546001600160a01b0319166001600160a01b0392909216919091179055565b6008602052816000526040600020818154811062000f8257600080fd5b90600052602060002001600091509150505481565b6001600160a01b03811660009081526008602090815260409182902080548351818402810184019094528084526060939283018282801562000ff957602002820191906000526020600020905b81548152602001906001019080831162000fe4575b50505050509050919050565b6200100f62001049565b6001600160a01b0381166200103b57604051631e4fbdf760e01b8152600060048201526024016200040b565b620010468162001078565b50565b6000546001600160a01b031633146200070b5760405163118cdaa760e01b81523360048201526024016200040b565b600080546001600160a01b038381166001600160a01b0319831681178455604051919092169283917f8be0079c531659141344cd1fd0a4f28419497f9722a3daafe3b4186f6b6457e09190a35050565b6129b2806200173583390190565b6001600160a01b03811681146200104657600080fd5b600060208284031215620010ff57600080fd5b81356200110c81620010d6565b9392505050565b6000602082840312156200112657600080fd5b5035919050565b60005b838110156200114a57818101518382015260200162001130565b50506000910152565b600081518084526200116d8160208601602086016200112d565b601f01601f19169290920160200192915050565b600081518084526020808501945080840160005b83811015620011bc5781516001600160a01b03168752958201959082019060010162001195565b509495945050505050565b6001600160a01b0385168152608060208201819052600090620011ed9083018662001153565b828103604084015262001201818662001153565b9050828103606084015262001217818562001181565b979650505050505050565b634e487b7160e01b600052604160045260246000fd5b604051601f8201601f1916810167ffffffffffffffff8111828210171562001264576200126462001222565b604052919050565b600067ffffffffffffffff82111562001289576200128962001222565b50601f01601f191660200190565b600082601f830112620012a957600080fd5b8135620012c0620012ba826200126c565b62001238565b818152846020838601011115620012d657600080fd5b816020850160208301376000918101602001919091529392505050565b600067ffffffffffffffff82111562001310576200131062001222565b5060051b60200190565b6000806000606084860312156200133057600080fd5b833567ffffffffffffffff808211156200134957600080fd5b620013578783880162001297565b94506020915081860135818111156200136f57600080fd5b6200137d8882890162001297565b9450506040860135818111156200139357600080fd5b86019050601f81018713620013a757600080fd5b8035620013b8620012ba82620012f3565b81815260059190911b82018301908381019089831115620013d857600080fd5b928401925b8284101562001403578335620013f381620010d6565b82529284019290840190620013dd565b80955050505050509250925092565b600080604083850312156200142657600080fd5b50508035926020909101359150565b6020815260006200110c602083018462001181565b600080604083850312156200145e57600080fd5b82356200146b81620010d6565b946020939093013593505050565b6020808252825182820181905260009190848201906040850190845b81811015620014b35783518352928401929184019160010162001495565b50909695505050505050565b634e487b7160e01b600052603260045260246000fd5b600060208284031215620014e857600080fd5b815167ffffffffffffffff8111156200150057600080fd5b8201601f810184136200151257600080fd5b805162001523620012ba826200126c565b8181528560208385010111156200153957600080fd5b6200154c8260208301602086016200112d565b95945050505050565b600060208083850312156200156957600080fd5b825167ffffffffffffffff8111156200158157600080fd5b8301601f810185136200159357600080fd5b8051620015a4620012ba82620012f3565b81815260059190911b82018301908381019087831115620015c457600080fd5b928401925b8284101562001217578351620015df81620010d6565b82529284019290840190620015c9565b634e487b7160e01b600052601160045260246000fd5b8082018082111562000e2c5762000e2c620015ef565b600060018201620016305762001630620015ef565b5060010190565b6000602082840312156200164a57600080fd5b5051919050565b6000610100808352620016678184018c62001153565b905082810360208401526200167d818b62001153565b9050828103604084015262001693818a62001181565b6001600160a01b0398891660608501529688166080840152505092851660a084015290841660c083015290921660e0909201919091529392505050565b608081526000620016e5608083018762001153565b8281036020840152620016f9818762001153565b6001600160a01b03861660408501528381036060850152905062001217818562001181565b8181038181111562000e2c5762000e2c620015ef56fe60806040523480156200001157600080fd5b50604051620029b2380380620029b283398101604081905262000034916200038c565b84888860036200004583826200050a565b5060046200005482826200050a565b5050506001600160a01b0381166200008657604051631e4fbdf760e01b81526000600482015260240160405180910390fd5b620000918162000135565b506006620000a089826200050a565b506007620000af88826200050a565b508551620000c590600890602089019062000187565b50600980546001600160a01b03199081166001600160a01b0388811691909117909255600a80548216878416179055600e80548216868416179055600b80548216858416179055600c8054909116918316919091179055620001278562000135565b5050505050505050620005d6565b600580546001600160a01b038381166001600160a01b0319831681179093556040519116919082907f8be0079c531659141344cd1fd0a4f28419497f9722a3daafe3b4186f6b6457e090600090a35050565b828054828255906000526020600020908101928215620001df579160200282015b82811115620001df57825182546001600160a01b0319166001600160a01b03909116178255602090920191600190910190620001a8565b50620001ed929150620001f1565b5090565b5b80821115620001ed5760008155600101620001f2565b634e487b7160e01b600052604160045260246000fd5b604051601f8201601f191681016001600160401b038111828210171562000249576200024962000208565b604052919050565b600082601f8301126200026357600080fd5b81516001600160401b038111156200027f576200027f62000208565b602062000295601f8301601f191682016200021e565b8281528582848701011115620002aa57600080fd5b60005b83811015620002ca578581018301518282018401528201620002ad565b506000928101909101919091529392505050565b80516001600160a01b0381168114620002f657600080fd5b919050565b600082601f8301126200030d57600080fd5b815160206001600160401b038211156200032b576200032b62000208565b8160051b6200033c8282016200021e565b92835284810182019282810190878511156200035757600080fd5b83870192505b8483101562000381576200037183620002de565b825291830191908301906200035d565b979650505050505050565b600080600080600080600080610100898b031215620003aa57600080fd5b88516001600160401b0380821115620003c257600080fd5b620003d08c838d0162000251565b995060208b0151915080821115620003e757600080fd5b620003f58c838d0162000251565b985060408b01519150808211156200040c57600080fd5b506200041b8b828c01620002fb565b9650506200042c60608a01620002de565b94506200043c60808a01620002de565b93506200044c60a08a01620002de565b92506200045c60c08a01620002de565b91506200046c60e08a01620002de565b90509295985092959890939650565b600181811c908216806200049057607f821691505b602082108103620004b157634e487b7160e01b600052602260045260246000fd5b50919050565b601f8211156200050557600081815260208120601f850160051c81016020861015620004e05750805b601f850160051c820191505b818110156200050157828155600101620004ec565b5050505b505050565b81516001600160401b0381111562000526576200052662000208565b6200053e816200053784546200047b565b84620004b7565b602080601f8311600181146200057657600084156200055d5750858301515b600019600386901b1c1916600185901b17855562000501565b600085815260208120601f198616915b82811015620005a75788860151825594840194600190910190840162000586565b5085821015620005c65787850151600019600388901b60f8161c191681555b5050505050600190811b01905550565b6123cc80620005e66000396000f3fe6080604052600436106102135760003560e01c80637f51bb1f11610118578063a9059cbb116100a0578063da23eb631161006f578063da23eb63146105ce578063dd62ed3e146105e3578063e4849b3214610629578063f2fde38b14610649578063fb5825ba1461066957600080fd5b8063a9059cbb14610561578063c0e547a314610581578063cfa498a314610596578063d95bd6c9146105ac57600080fd5b80639ce1413b116100e75780639ce1413b146104fa578063a3bf224b1461050f578063a525ad3c1461052f578063a5c6e8ed14610544578063a6f2ae3a1461055957600080fd5b80637f51bb1f146104a757806383d5e726146102ae5780638da5cb5b146104c757806395d89b41146104e557600080fd5b80632a033d2a1161019b57806361d027b31161016a57806361d027b3146103fc578063692058c21461041c57806370a082311461043c578063715018a6146104725780637dc0d1d01461048757600080fd5b80632a033d2a14610368578063313ce5671461037d5780633aecd0e314610399578063523fba7f146103cf57600080fd5b8063117be4c2116101e2578063117be4c2146102d157806318160ddd146102f15780631bd60900146103065780631cb44dfc1461032857806323b872dd1461034857600080fd5b806302d05d3f1461021f57806306fdde031461025c578063095ea7b31461027e5780630d1f2403146102ae57600080fd5b3661021a57005b600080fd5b34801561022b57600080fd5b5060095461023f906001600160a01b031681565b6040516001600160a01b0390911681526020015b60405180910390f35b34801561026857600080fd5b50610271610689565b60405161025391906120b2565b34801561028a57600080fd5b5061029e61029936600461211c565b61071b565b6040519015158152602001610253565b3480156102ba57600080fd5b506102c3601981565b604051908152602001610253565b3480156102dd57600080fd5b50600c5461023f906001600160a01b031681565b3480156102fd57600080fd5b506002546102c3565b34801561031257600080fd5b50610326610321366004612146565b610735565b005b34801561033457600080fd5b50610326610343366004612146565b6107b0565b34801561035457600080fd5b5061029e610363366004612168565b610829565b34801561037457600080fd5b506102c361084d565b34801561038957600080fd5b5060405160128152602001610253565b3480156103a557600080fd5b506102c36103b4366004612146565b6001600160a01b03166000908152600d602052604090205490565b3480156103db57600080fd5b506102c36103ea366004612146565b600d6020526000908152604090205481565b34801561040857600080fd5b50600e5461023f906001600160a01b031681565b34801561042857600080fd5b50600b5461023f906001600160a01b031681565b34801561044857600080fd5b506102c3610457366004612146565b6001600160a01b031660009081526020819052604090205490565b34801561047e57600080fd5b50610326610a26565b34801561049357600080fd5b50600a5461023f906001600160a01b031681565b3480156104b357600080fd5b506103266104c2366004612146565b610a3a565b3480156104d357600080fd5b506005546001600160a01b031661023f565b3480156104f157600080fd5b50610271610aba565b34801561050657600080fd5b50610271610ac9565b34801561051b57600080fd5b5061023f61052a3660046121a4565b610b57565b34801561053b57600080fd5b506102c3606481565b34801561055057600080fd5b506102c360c881565b610326610b81565b34801561056d57600080fd5b5061029e61057c36600461211c565b610d78565b34801561058d57600080fd5b50610271610d86565b3480156105a257600080fd5b506102c361271081565b3480156105b857600080fd5b506105c1610d93565b6040516102539190612201565b3480156105da57600080fd5b506102c3603281565b3480156105ef57600080fd5b506102c36105fe366004612214565b6001600160a01b03918216600090815260016020908152604080832093909416825291909152205490565b34801561063557600080fd5b506103266106443660046121a4565b610df4565b34801561065557600080fd5b50610326610664366004612146565b611096565b34801561067557600080fd5b506102c3610684366004612146565b6110d4565b60606003805461069890612247565b80601f01602080910402602001604051908101604052809291908181526020018280546106c490612247565b80156107115780601f106106e657610100808354040283529160200191610711565b820191906000526020600020905b8154815290600101906020018083116106f457829003601f168201915b5050505050905090565b6000336107298185856110f2565b60019150505b92915050565b61073d611104565b6001600160a01b03811661078e5760405162461bcd60e51b8152602060048201526013602482015272496e76616c696420444558206164647265737360681b60448201526064015b60405180910390fd5b600b80546001600160a01b0319166001600160a01b0392909216919091179055565b6107b8611104565b6001600160a01b0381166108075760405162461bcd60e51b8152602060048201526016602482015275496e76616c6964206f7261636c65206164647265737360501b6044820152606401610785565b600a80546001600160a01b0319166001600160a01b0392909216919091179055565b600033610837858285611131565b6108428585856111af565b506001949350505050565b600061085860025490565b6000036108655750600090565b6000805b600854811015610a20576000600882815481106108885761088861227b565b60009182526020808320909101546001600160a01b0316808352600d9091526040909120549091508015610a0b57600a546040516341976e0960e01b81526001600160a01b03848116600483015260009216906341976e0990602401602060405180830381865afa158015610901573d6000803e3d6000fd5b505050506040513d601f19601f820116820180604052508101906109259190612291565b600a546040516341976e0960e01b81526000600482018190529293506001600160a01b03909116906341976e0990602401602060405180830381865afa158015610973573d6000803e3d6000fd5b505050506040513d601f19601f820116820180604052508101906109979190612291565b90506000821180156109a95750600081115b156109fb5760006305f5e1006109bf84866122c0565b6109c991906122d7565b90506000826109dc836305f5e1006122c0565b6109e691906122d7565b90506109f281896122f9565b97505050610a08565b610a0583876122f9565b95505b50505b50508080610a189061230c565b915050610869565b50919050565b610a2e611104565b610a38600061120e565b565b610a42611104565b6001600160a01b038116610a985760405162461bcd60e51b815260206004820152601860248201527f496e76616c6964207472656173757279206164647265737300000000000000006044820152606401610785565b600e80546001600160a01b0319166001600160a01b0392909216919091179055565b60606004805461069890612247565b60068054610ad690612247565b80601f0160208091040260200160405190810160405280929190818152602001828054610b0290612247565b8015610b4f5780601f10610b2457610100808354040283529160200191610b4f565b820191906000526020600020905b815481529060010190602001808311610b3257829003601f168201915b505050505081565b60088181548110610b6757600080fd5b6000918252602090912001546001600160a01b0316905081565b60003411610bc25760405162461bcd60e51b815260206004820152600e60248201526d09aeae6e840e6cadcc84082ac82b60931b6044820152606401610785565b600854610c085760405162461bcd60e51b81526020600482015260146024820152734e6f20756e6465726c79696e6720746f6b656e7360601b6044820152606401610785565b6000612710610c186064346122c0565b610c2291906122d7565b90506000610c308234612325565b90506000610c3d82611260565b9050610c49338261135f565b610c5283611399565b600c60009054906101000a90046001600160a01b03166001600160a01b031663d0e30db0836040518263ffffffff1660e01b81526004016000604051808303818588803b158015610ca257600080fd5b505af1158015610cb6573d6000803e3d6000fd5b5050600c546040516370a0823160e01b8152306004820152610d3094506001600160a01b0390911692506370a082319150602401602060405180830381865afa158015610d07573d6000803e3d6000fd5b505050506040513d601f19601f82011682018060405250810190610d2b9190612291565b61159b565b604080513481526020810183905290810184905233907f0f18542593f463db9b35ce49dfef2fa3e7b5976b7dbfd9a901dd384d2da16da49060600160405180910390a2505050565b6000336107298185856111af565b60078054610ad690612247565b6060600880548060200260200160405190810160405280929190818152602001828054801561071157602002820191906000526020600020905b81546001600160a01b03168152600190910190602001808311610dcd575050505050905090565b60008111610e445760405162461bcd60e51b815260206004820152601d60248201527f416d6f756e74206d7573742062652067726561746572207468616e20300000006044820152606401610785565b33600090815260208190526040902054811115610ea35760405162461bcd60e51b815260206004820152601860248201527f496e73756666696369656e742066756e6420746f6b656e7300000000000000006044820152606401610785565b6000610eae60025490565b11610efb5760405162461bcd60e51b815260206004820152601d60248201527f4e6f2066756e6420746f6b656e7320696e2063697263756c6174696f6e0000006044820152606401610785565b6000610f0660025490565b610f1883670de0b6b3a76400006122c0565b610f2291906122d7565b90506000610f2f8261192a565b905060008111610f765760405162461bcd60e51b81526020600482015260126024820152712737903b30b63ab2903a37903932ba3ab93760711b6044820152606401610785565b6000612710610f866064846122c0565b610f9091906122d7565b90506000610f9e8284612325565b9050610faa3386611d62565b610fb382611399565b604051600090339083908381818185875af1925050503d8060008114610ff5576040519150601f19603f3d011682016040523d82523d6000602084013e610ffa565b606091505b505090508061104b5760405162461bcd60e51b815260206004820152601760248201527f4661696c656420746f207472616e7366657220415641580000000000000000006044820152606401610785565b604080518781526020810184905290810184905233907fcb8b579dfe6e9168d68023b09b7de38effbd57bc37422ed8b5718ca997730d589060600160405180910390a2505050505050565b61109e611104565b6001600160a01b0381166110c857604051631e4fbdf760e01b815260006004820152602401610785565b6110d18161120e565b50565b6001600160a01b03811660009081526020819052604081205461072f565b6110ff8383836001611d98565b505050565b6005546001600160a01b03163314610a385760405163118cdaa760e01b8152336004820152602401610785565b6001600160a01b0383811660009081526001602090815260408083209386168352929052205460001981146111a9578181101561119a57604051637dc7a0d960e11b81526001600160a01b03841660048201526024810182905260448101839052606401610785565b6111a984848484036000611d98565b50505050565b6001600160a01b0383166111d957604051634b637e8f60e11b815260006004820152602401610785565b6001600160a01b0382166112035760405163ec442f0560e01b815260006004820152602401610785565b6110ff838383611e6d565b600580546001600160a01b038381166001600160a01b0319831681179093556040519116919082907f8be0079c531659141344cd1fd0a4f28419497f9722a3daafe3b4186f6b6457e090600090a35050565b600061126b60025490565b600003611276575090565b600061271061128660c882612325565b61129090856122c0565b61129a91906122d7565b600a546040516341976e0960e01b81526000600482018190529293506001600160a01b03909116906341976e0990602401602060405180830381865afa1580156112e8573d6000803e3d6000fd5b505050506040513d601f19601f8201168201806040525081019061130c9190612291565b905060006305f5e10061131f83856122c0565b61132991906122d7565b90506000611335611f97565b90508061134160025490565b61134b90846122c0565b61135591906122d7565b9695505050505050565b6001600160a01b0382166113895760405163ec442f0560e01b815260006004820152602401610785565b61139560008383611e6d565b5050565b600060646113a86032846122c0565b6113b291906122d7565b9050600060646113c36019856122c0565b6113cd91906122d7565b9050600060646113de6019866122c0565b6113e891906122d7565b90508215611495576009546040516000916001600160a01b03169085908381818185875af1925050503d806000811461143d576040519150601f19603f3d011682016040523d82523d6000602084013e611442565b606091505b50509050806114935760405162461bcd60e51b815260206004820152601a60248201527f4661696c656420746f2073656e642063726561746f72206665650000000000006044820152606401610785565b505b60006114a182846122f9565b111561155457600e546000906001600160a01b03166114c083856122f9565b604051600081818185875af1925050503d80600081146114fc576040519150601f19603f3d011682016040523d82523d6000602084013e611501565b606091505b50509050806115525760405162461bcd60e51b815260206004820152601b60248201527f4661696c656420746f2073656e642074726561737572792066656500000000006044820152606401610785565b505b60408051848152602081018490529081018290527f312c5308f42848705a866c73dec11fd0783c2d64aac6a97e94467062ad3f40589060600160405180910390a150505050565b600081116115eb5760405162461bcd60e51b815260206004820152601d60248201527f416d6f756e74206d7573742062652067726561746572207468616e20300000006044820152606401610785565b600b546001600160a01b03166116315760405162461bcd60e51b815260206004820152600b60248201526a111156081b9bdd081cd95d60aa1b6044820152606401610785565b60085460009061164190836122d7565b905060005b6008548110156110ff576000600882815481106116655761166561227b565b6000918252602090912001546001600160a01b031690508215611916576040805160028082526060820183526000926020830190803683375050600c5482519293506001600160a01b0316918391506000906116c3576116c361227b565b60200260200101906001600160a01b031690816001600160a01b03168152505081816001815181106116f7576116f761227b565b6001600160a01b039283166020918202929092010152600c54600b5460405163095ea7b360e01b815290831660048201526024810187905291169063095ea7b3906044016020604051808303816000875af115801561175a573d6000803e3d6000fd5b505050506040513d601f19601f8201168201806040525081019061177e9190612338565b506040516370a0823160e01b81523060048201526000906001600160a01b038416906370a0823190602401602060405180830381865afa1580156117c6573d6000803e3d6000fd5b505050506040513d601f19601f820116820180604052508101906117ea9190612291565b600b549091506001600160a01b0316635c11d795866001853061180f426104b06122f9565b6040518663ffffffff1660e01b815260040161182f95949392919061235a565b600060405180830381600087803b15801561184957600080fd5b505af192505050801561185a575060015b61186657505050611918565b6040516370a0823160e01b81523060048201526000906001600160a01b038516906370a0823190602401602060405180830381865afa1580156118ad573d6000803e3d6000fd5b505050506040513d601f19601f820116820180604052508101906118d19190612291565b905060006118df8383612325565b6001600160a01b0386166000908152600d602052604081208054929350839290919061190c9084906122f9565b9091555050505050505b505b806119228161230c565b915050611646565b600b546000906001600160a01b03166119735760405162461bcd60e51b815260206004820152600b60248201526a111156081b9bdd081cd95d60aa1b6044820152606401610785565b600082116119d25760405162461bcd60e51b815260206004820152602660248201527f53656c6c2070657263656e74616765206d75737420626520677265617465722060448201526507468616e20360d41b6064820152608401610785565b506000805b600854811015610a20576000600882815481106119f6576119f661227b565b60009182526020808320909101546001600160a01b0316808352600d9091526040909120549091508015611d4d576000670de0b6b3a7640000611a3987846122c0565b611a4391906122d7565b905080600003611a5557505050611d50565b6040805160028082526060820183526000926020830190803683370190505090508381600081518110611a8a57611a8a61227b565b6001600160a01b039283166020918202929092010152600c54825191169082906001908110611abb57611abb61227b565b6001600160a01b039283166020918202929092010152600b5460405163095ea7b360e01b81529082166004820152602481018490529085169063095ea7b3906044016020604051808303816000875af1158015611b1c573d6000803e3d6000fd5b505050506040513d601f19601f82011682018060405250810190611b409190612338565b50600c546040516370a0823160e01b81523060048201526000916001600160a01b0316906370a0823190602401602060405180830381865afa158015611b8a573d6000803e3d6000fd5b505050506040513d601f19601f82011682018060405250810190611bae9190612291565b600b549091506001600160a01b0316635c11d7958460018530611bd3426104b06122f9565b6040518663ffffffff1660e01b8152600401611bf395949392919061235a565b600060405180830381600087803b158015611c0d57600080fd5b505af1158015611c21573d6000803e3d6000fd5b5050600c546040516370a0823160e01b8152306004820152600093506001600160a01b0390911691506370a0823190602401602060405180830381865afa158015611c70573d6000803e3d6000fd5b505050506040513d601f19601f82011682018060405250810190611c949190612291565b90506000611ca28383612325565b90508015611d4757600c54604051632e1a7d4d60e01b8152600481018390526001600160a01b0390911690632e1a7d4d90602401600060405180830381600087803b158015611cf057600080fd5b505af1158015611d04573d6000803e3d6000fd5b505050508089611d1491906122f9565b6001600160a01b0388166000908152600d602052604081208054929b508792909190611d41908490612325565b90915550505b50505050505b50505b80611d5a8161230c565b9150506119d7565b6001600160a01b038216611d8c57604051634b637e8f60e11b815260006004820152602401610785565b61139582600083611e6d565b6001600160a01b038416611dc25760405163e602df0560e01b815260006004820152602401610785565b6001600160a01b038316611dec57604051634a1406b160e11b815260006004820152602401610785565b6001600160a01b03808516600090815260016020908152604080832093871683529290522082905580156111a957826001600160a01b0316846001600160a01b03167f8c5be1e5ebec7d5bd14f71427d1e84f3dd0314c0f7b2291e5b200ac8c7c3b92584604051611e5f91815260200190565b60405180910390a350505050565b6001600160a01b038316611e98578060026000828254611e8d91906122f9565b90915550611f0a9050565b6001600160a01b03831660009081526020819052604090205481811015611eeb5760405163391434e360e21b81526001600160a01b03851660048201526024810182905260448101839052606401610785565b6001600160a01b03841660009081526020819052604090209082900390555b6001600160a01b038216611f2657600280548290039055611f45565b6001600160a01b03821660009081526020819052604090208054820190555b816001600160a01b0316836001600160a01b03167fddf252ad1be2c89b69c2b068fc378daa952ba7f163c4a11628f55a4df523b3ef83604051611f8a91815260200190565b60405180910390a3505050565b6000611fa260025490565b600003611faf5750600090565b6000805b600854811015610a2057600060088281548110611fd257611fd261227b565b60009182526020808320909101546001600160a01b0316808352600d909152604090912054909150801561209d57600a546040516341976e0960e01b81526001600160a01b03848116600483015260009216906341976e0990602401602060405180830381865afa15801561204b573d6000803e3d6000fd5b505050506040513d601f19601f8201168201806040525081019061206f9190612291565b905060006305f5e10061208283856122c0565b61208c91906122d7565b905061209881876122f9565b955050505b505080806120aa9061230c565b915050611fb3565b600060208083528351808285015260005b818110156120df578581018301518582016040015282016120c3565b506000604082860101526040601f19601f8301168501019250505092915050565b80356001600160a01b038116811461211757600080fd5b919050565b6000806040838503121561212f57600080fd5b61213883612100565b946020939093013593505050565b60006020828403121561215857600080fd5b61216182612100565b9392505050565b60008060006060848603121561217d57600080fd5b61218684612100565b925061219460208501612100565b9150604084013590509250925092565b6000602082840312156121b657600080fd5b5035919050565b600081518084526020808501945080840160005b838110156121f65781516001600160a01b0316875295820195908201906001016121d1565b509495945050505050565b60208152600061216160208301846121bd565b6000806040838503121561222757600080fd5b61223083612100565b915061223e60208401612100565b90509250929050565b600181811c9082168061225b57607f821691505b602082108103610a2057634e487b7160e01b600052602260045260246000fd5b634e487b7160e01b600052603260045260246000fd5b6000602082840312156122a357600080fd5b5051919050565b634e487b7160e01b600052601160045260246000fd5b808202811582820484141761072f5761072f6122aa565b6000826122f457634e487b7160e01b600052601260045260246000fd5b500490565b8082018082111561072f5761072f6122aa565b60006001820161231e5761231e6122aa565b5060010190565b8181038181111561072f5761072f6122aa565b60006020828403121561234a57600080fd5b8151801515811461216157600080fd5b85815284602082015260a06040820152600061237960a08301866121bd565b6001600160a01b039490941660608301525060800152939250505056fea26469706673582212205ee43418ce44cecb36f75383890b49059a3e74e179b4cfd2c4d24cbd2578fd3c64736f6c63430008140033a2646970667358221220604a18c43d133652d709d5dd3bd14ebda9f7cbdd5c667ba0488d2020778607d764736f6c63430008140033",
  "devdoc": {
    "author": "Avanguard Index",
    "errors": {
      "OwnableInvalidOwner(address)": [
        {
          "details": "The owner is not a valid owner account. (eg. `address(0)`)"
        }
      ],
      "OwnableUnauthorizedAccount(address)": [
        {
          "details": "The caller account is not authorized to perform an operation."
        }
      ]
    },
    "kind": "dev",
    "methods": {
      "createFund(string,string,address[])": {
        "details": "Create a new fund",
        "params": {
          "fundName": "Name of the fund",
          "fundTicker": "Ticker symbol for the fund",
          "tokens": "Array of underlying token addresses"
        }
      },
      "creationFee()": {
        "details": "Returns the fund creation fee."
      },
      "getCreatorFunds(address)": {
        "details": "Get all funds created by a specific creator",
        "params": {
          "creator": "The creator address"
        },
        "returns": {
          "_0": "Array of fund IDs created by the creator"
        }
      },
      "getFund(uint256)": {
        "details": "Get fund information by ID",
        "params": {
          "fundId": "The fund ID"
        },
        "returns": {
          "fundAddress": "The fund contract address",
          "fundName": "The fund name",
          "fundTicker": "The fund ticker",
          "underlyingTokens": "Array of underlying token addresses"
        }
      },
      "getFunds(uint256,uint256)": {
        "details": "Get all funds (for frontend pagination)",
        "params": {
          "endIndex": "Ending index",
          "startIndex": "Starting index"
        },
        "returns": {
          "_0": "Array of fund addresses"
        }
      },
      "getTotalFunds()": {
        "details": "Get total number of funds",
        "returns": {
          "_0": "Total number of funds created"
        }
      },
      "owner()": {
        "details": "Returns the address of the current owner."
      },
      "renounceOwnership()": {
        "details": "Leaves the contract without owner. It will not be possible to call `onlyOwner` functions. Can only be called by the current owner. NOTE: Renouncing ownership will leave the contract without an owner, thereby disabling any functionality that is only available to the owner."
      },
      "transferOwnership(address)": {
        "details": "Transfers ownership of the contract to a new account (`newOwner`). Can only be called by the current owner."
      },
      "updateAgiToken(address)": {
        "details": "Update AGI token address (only owner)",
        "params": {
          "newAgiToken": "New AGI token address"
        }
      },
      "updateDex(address)": {
        "details": "Update DEX address (only owner)",
        "params": {
          "newDex": "New DEX address"
        }
      },
      "updateOracle(address)": {
        "details": "Update oracle address (only owner)",
        "params": {
          "newOracle": "New oracle address"
        }
      },
      "updateTreasury(address)": {
        "details": "Update treasury address (only owner)",
        "params": {
          "newTreasury": "New treasury address"
        }
      },
      "updateWavax(address)": {
        "details": "Update WAVAX address (only owner)",
        "params": {
          "newWavax": "New WAVAX address"
        }
      }
    },
    "version": 1
  },
  "userdoc": {
    "kind": "user",
    "methods": {},
    "notice": "Fund Factory Contract - Creates and manages index funds",
    "version": 1
  },
  "storageLayout": {
    "storage": [
      {
        "astId": 8,
        "contract": "contracts/FundFactory.sol:FundFactory",
        "label": "_owner",
        "offset": 0,
        "slot": "0",
        "type": "t_address"
      },
      {
        "astId": 2481,
        "contract": "contracts/FundFactory.sol:FundFactory",
        "label": "agiToken",
        "offset": 0,
        "slot": "1",
        "type": "t_contract(AGIToken)1015"
      },
      {
        "astId": 2483,
        "contract": "contracts/FundFactory.sol:FundFactory",
        "label": "oracle",
        "offset": 0,
        "slot": "2",
        "type": "t_address"
      },
      {
        "astId": 2485,
        "contract": "contracts/FundFactory.sol:FundFactory",
        "label": "treasury",
        "offset": 0,
        "slot": "3",
        "type": "t_address"
      },
      {
        "astId": 2487,
        "contract": "contracts/FundFactory.sol:FundFactory",
        "label": "dex",
        "offset": 0,
        "slot": "4",
        "type": "t_address"
      },
      {
        "astId": 2489,
        "contract": "contracts/FundFactory.sol:FundFactory",
        "label": "wavax",
        "offset": 0,
        "slot": "5",
        "type": "t_address"
      },
      {
        "astId": 2493,
        "contract": "contracts/FundFactory.sol:FundFactory",
        "label": "funds",
        "offset": 0,
        "slot": "6",
        "type": "t_array(t_contract(Fund)2463)dyn_storage"
      },
      {
        "astId": 2498,
        "contract": "contracts/FundFactory.sol:FundFactory",
        "label": "fundById",
        "offset": 0,
        "slot": "7",
        "type": "t_mapping(t_uint256,t_contract(Fund)2463)"
      },
      {
        "astId": 2503,
        "contract": "contracts/FundFactory.sol:FundFactory",
        "label": "creatorFunds",
        "offset": 0,
        "slot": "8",
        "type": "t_mapping(t_address,t_array(t_uint256)dyn_storage)"
      }
    ],
    "types": {
      "t_address": {
        "encoding": "inplace",
        "label": "address",
        "numberOfBytes": "20"
      },
      "t_array(t_contract(Fund)2463)dyn_storage": {
        "base": "t_contract(Fund)2463",
        "encoding": "dynamic_array",
        "label": "contract Fund[]",
        "numberOfBytes": "32"
      },
      "t_array(t_uint256)dyn_storage": {
        "base": "t_uint256",
        "encoding": "dynamic_array",
        "label": "uint256[]",
        "numberOfBytes": "32"
      },
      "t_contract(AGIToken)1015": {
        "encoding": "inplace",
        "label": "contract AGIToken",
        "numberOfBytes": "20"
      },
      "t_contract(Fund)2463": {
        "encoding": "inplace",
        "label": "contract Fund",
        "numberOfBytes": "20"
      },
      "t_mapping(t_address,t_array(t_uint256)dyn_storage)": {
        "encoding": "mapping",
        "key": "t_address",
        "label": "mapping(address => uint256[])",
        "numberOfBytes": "32",
        "value": "t_array(t_uint256)dyn_storage"
      },
      "t_mapping(t_uint256,t_contract(Fund)2463)": {
        "encoding": "mapping",
        "key": "t_uint256",
        "label": "mapping(uint256 => contract Fund)",
        "numberOfBytes": "32",
        "value": "t_contract(Fund)2463"
      },
      "t_uint256": {
        "encoding": "inplace",
        "label": "uint256",
        "numberOfBytes": "32"
      }
    }
  }
}