{
  "address": "0x573CF0E9d375876Afd399e79a08d70a861914440",
  "abi": [
    {
      "inputs": [
        {
          "internalType": "address",
          "name": "_agiToken",
          "type": "address"
        },
        {
          "internalType": "address",
          "name": "_oracle",
          "type": "address"
        },
        {
          "internalType": "address",
          "name": "_treasury",
          "type": "address"
        },
        {
          "internalType": "address",
          "name": "_dex",
          "type": "address"
        },
        {
          "internalType": "address",
          "name": "_wavax",
          "type": "address"
        },
        {
          "internalType": "address",
          "name": "initialOwner",
          "type": "address"
        }
      ],
      "stateMutability": "nonpayable",
      "type": "constructor"
    },
    {
      "inputs": [
        {
          "internalType": "address",
          "name": "owner",
          "type": "address"
        }
      ],
      "name": "OwnableInvalidOwner",
      "type": "error"
    },
    {
      "inputs": [
        {
          "internalType": "address",
          "name": "account",
          "type": "address"
        }
      ],
      "name": "OwnableUnauthorizedAccount",
      "type": "error"
    },
    {
      "anonymous": false,
      "inputs": [
        {
          "indexed": true,
          "internalType": "uint256",
          "name": "fundId",
          "type": "uint256"
        },
        {
          "indexed": true,
          "internalType": "address",
          "name": "creator",
          "type": "address"
        },
        {
          "indexed": false,
          "internalType": "string",
          "name": "fundName",
          "type": "string"
        },
        {
          "indexed": false,
          "internalType": "string",
          "name": "fundTicker",
          "type": "string"
        },
        {
          "indexed": false,
          "internalType": "address",
          "name": "fundAddress",
          "type": "address"
        },
        {
          "indexed": false,
          "internalType": "address[]",
          "name": "underlyingTokens",
          "type": "address[]"
        }
      ],
      "name": "FundCreated",
      "type": "event"
    },
    {
      "anonymous": false,
      "inputs": [
        {
          "indexed": true,
          "internalType": "address",
          "name": "previousOwner",
          "type": "address"
        },
        {
          "indexed": true,
          "internalType": "address",
          "name": "newOwner",
          "type": "address"
        }
      ],
      "name": "OwnershipTransferred",
      "type": "event"
    },
    {
      "inputs": [],
      "name": "FUND_CREATION_FEE",
      "outputs": [
        {
          "internalType": "uint256",
          "name": "",
          "type": "uint256"
        }
      ],
      "stateMutability": "view",
      "type": "function"
    },
    {
      "inputs": [],
      "name": "agiToken",
      "outputs": [
        {
          "internalType": "contract AGIToken",
          "name": "",
          "type": "address"
        }
      ],
      "stateMutability": "view",
      "type": "function"
    },
    {
      "inputs": [
        {
          "internalType": "string",
          "name": "fundName",
          "type": "string"
        },
        {
          "internalType": "string",
          "name": "fundTicker",
          "type": "string"
        },
        {
          "internalType": "address[]",
          "name": "tokens",
          "type": "address[]"
        },
        {
          "internalType": "uint256[]",
          "name": "weightages",
          "type": "uint256[]"
        }
      ],
      "name": "createFund",
      "outputs": [],
      "stateMutability": "nonpayable",
      "type": "function"
    },
    {
      "inputs": [],
      "name": "creationFee",
      "outputs": [
        {
          "internalType": "uint256",
          "name": "",
          "type": "uint256"
        }
      ],
      "stateMutability": "pure",
      "type": "function"
    },
    {
      "inputs": [
        {
          "internalType": "address",
          "name": "",
          "type": "address"
        },
        {
          "internalType": "uint256",
          "name": "",
          "type": "uint256"
        }
      ],
      "name": "creatorFunds",
      "outputs": [
        {
          "internalType": "uint256",
          "name": "",
          "type": "uint256"
        }
      ],
      "stateMutability": "view",
      "type": "function"
    },
    {
      "inputs": [],
      "name": "dex",
      "outputs": [
        {
          "internalType": "address",
          "name": "",
          "type": "address"
        }
      ],
      "stateMutability": "view",
      "type": "function"
    },
    {
      "inputs": [
        {
          "internalType": "uint256",
          "name": "",
          "type": "uint256"
        }
      ],
      "name": "fundById",
      "outputs": [
        {
          "internalType": "contract Fund",
          "name": "",
          "type": "address"
        }
      ],
      "stateMutability": "view",
      "type": "function"
    },
    {
      "inputs": [
        {
          "internalType": "uint256",
          "name": "",
          "type": "uint256"
        }
      ],
      "name": "funds",
      "outputs": [
        {
          "internalType": "contract Fund",
          "name": "",
          "type": "address"
        }
      ],
      "stateMutability": "view",
      "type": "function"
    },
    {
      "inputs": [
        {
          "internalType": "address",
          "name": "creator",
          "type": "address"
        }
      ],
      "name": "getCreatorFunds",
      "outputs": [
        {
          "internalType": "uint256[]",
          "name": "",
          "type": "uint256[]"
        }
      ],
      "stateMutability": "view",
      "type": "function"
    },
    {
      "inputs": [
        {
          "internalType": "uint256",
          "name": "fundId",
          "type": "uint256"
        }
      ],
      "name": "getFund",
      "outputs": [
        {
          "internalType": "address",
          "name": "fundAddress",
          "type": "address"
        },
        {
          "internalType": "string",
          "name": "fundName",
          "type": "string"
        },
        {
          "internalType": "string",
          "name": "fundTicker",
          "type": "string"
        },
        {
          "internalType": "address[]",
          "name": "underlyingTokens",
          "type": "address[]"
        },
        {
          "internalType": "uint256[]",
          "name": "weightages",
          "type": "uint256[]"
        }
      ],
      "stateMutability": "view",
      "type": "function"
    },
    {
      "inputs": [
        {
          "internalType": "uint256",
          "name": "startIndex",
          "type": "uint256"
        },
        {
          "internalType": "uint256",
          "name": "endIndex",
          "type": "uint256"
        }
      ],
      "name": "getFunds",
      "outputs": [
        {
          "internalType": "address[]",
          "name": "",
          "type": "address[]"
        }
      ],
      "stateMutability": "view",
      "type": "function"
    },
    {
      "inputs": [],
      "name": "getTotalFunds",
      "outputs": [
        {
          "internalType": "uint256",
          "name": "",
          "type": "uint256"
        }
      ],
      "stateMutability": "view",
      "type": "function"
    },
    {
      "inputs": [],
      "name": "oracle",
      "outputs": [
        {
          "internalType": "address",
          "name": "",
          "type": "address"
        }
      ],
      "stateMutability": "view",
      "type": "function"
    },
    {
      "inputs": [],
      "name": "owner",
      "outputs": [
        {
          "internalType": "address",
          "name": "",
          "type": "address"
        }
      ],
      "stateMutability": "view",
      "type": "function"
    },
    {
      "inputs": [],
      "name": "renounceOwnership",
      "outputs": [],
      "stateMutability": "nonpayable",
      "type": "function"
    },
    {
      "inputs": [
        {
          "internalType": "address",
          "name": "newOwner",
          "type": "address"
        }
      ],
      "name": "transferOwnership",
      "outputs": [],
      "stateMutability": "nonpayable",
      "type": "function"
    },
    {
      "inputs": [],
      "name": "treasury",
      "outputs": [
        {
          "internalType": "address",
          "name": "",
          "type": "address"
        }
      ],
      "stateMutability": "view",
      "type": "function"
    },
    {
      "inputs": [
        {
          "internalType": "address",
          "name": "newAgiToken",
          "type": "address"
        }
      ],
      "name": "updateAgiToken",
      "outputs": [],
      "stateMutability": "nonpayable",
      "type": "function"
    },
    {
      "inputs": [
        {
          "internalType": "address",
          "name": "newDex",
          "type": "address"
        }
      ],
      "name": "updateDex",
      "outputs": [],
      "stateMutability": "nonpayable",
      "type": "function"
    },
    {
      "inputs": [
        {
          "internalType": "address",
          "name": "newOracle",
          "type": "address"
        }
      ],
      "name": "updateOracle",
      "outputs": [],
      "stateMutability": "nonpayable",
      "type": "function"
    },
    {
      "inputs": [
        {
          "internalType": "address",
          "name": "newTreasury",
          "type": "address"
        }
      ],
      "name": "updateTreasury",
      "outputs": [],
      "stateMutability": "nonpayable",
      "type": "function"
    },
    {
      "inputs": [
        {
          "internalType": "address",
          "name": "newWavax",
          "type": "address"
        }
      ],
      "name": "updateWavax",
      "outputs": [],
      "stateMutability": "nonpayable",
      "type": "function"
    },
    {
      "inputs": [],
      "name": "wavax",
      "outputs": [
        {
          "internalType": "address",
          "name": "",
          "type": "address"
        }
      ],
      "stateMutability": "view",
      "type": "function"
    }
  ],
  "transactionHash": "0xdc49d849baddeaf0f56361ced51b635c0c99cd7b019f33b4f05aba2197c92a86",
  "args": [
    "0xefaAE152f5cFcbe84306aeC25a1Ce593B3c34227",
    "0x3C8aFa3DB81119aE323DcDBeB92203ecfe9B8A76",
    "0xe63D399611EA823F7442b78d43F972fF61D7b05C",
    "0x2D99ABD9008Dc933ff5c0CD271B88309593aB921",
    "0xd00ae08403B9bbb9124bB305C09058E32C39A48c",
    "0xe63D399611EA823F7442b78d43F972fF61D7b05C"
  ],
  "numDeployments": 2,
  "solcInputHash": "98910416eb0c55cef28f9b95d7c63a6d",
  "bytecode": "0x60806040523480156200001157600080fd5b5060405162005fc138038062005fc1833981016040819052620000349162000141565b806001600160a01b0381166200006457604051631e4fbdf760e01b81526000600482015260240160405180910390fd5b6200006f81620000d4565b5050600180546001600160a01b03199081166001600160a01b03978816179091556002805482169587169590951790945560038054851693861693909317909255600480548416918516919091179055600580549092169216919091179055620001c2565b600080546001600160a01b038381166001600160a01b0319831681178455604051919092169283917f8be0079c531659141344cd1fd0a4f28419497f9722a3daafe3b4186f6b6457e09190a35050565b80516001600160a01b03811681146200013c57600080fd5b919050565b60008060008060008060c087890312156200015b57600080fd5b620001668762000124565b9550620001766020880162000124565b9450620001866040880162000124565b9350620001966060880162000124565b9250620001a66080880162000124565b9150620001b660a0880162000124565b90509295509295509295565b615def80620001d26000396000f3fe60806040523480156200001157600080fd5b5060043610620001695760003560e01c80637a862c6a11620000d3578063aef1be9a1162000086578063aef1be9a146200031e578063d8c149e0146200034a578063dce0b4e41462000361578063df12f8c51462000371578063eb8bbd281462000397578063f2fde38b14620003a057600080fd5b80637a862c6a146200028d5780637b8e889514620002b35780637dc0d1d014620002ca5780637f51bb1f14620002de57806387f4637b14620002f55780638da5cb5b146200030c57600080fd5b806352c8df64116200012c57806352c8df6414620001fd57806361d027b31462000227578063658bb543146200023b578063692058c2146200024f578063715018a6146200026357806374b4eafe146200026d57600080fd5b8063117be4c2146200016e57806319dc94a6146200019f5780631bd6090014620001b85780631cb44dfc14620001cf5780631fa241bb14620001e6575b600080fd5b60055462000182906001600160a01b031681565b6040516001600160a01b0390911681526020015b60405180910390f35b620001b6620001b0366004620012b2565b620003b7565b005b620001b6620001c9366004620012b2565b62000437565b620001b6620001e0366004620012b2565b620004b1565b620001b6620001f73660046200143e565b6200052e565b620002146200020e3660046200155b565b62000bc1565b6040516200019695949392919062001641565b60035462000182906001600160a01b031681565b60015462000182906001600160a01b031681565b60045462000182906001600160a01b031681565b620001b662000dfb565b6200027e683635c9adc5dea0000081565b60405190815260200162000196565b620002a46200029e366004620016b3565b62000e13565b604051620001969190620016d6565b62000182620002c43660046200155b565b62000ff8565b60025462000182906001600160a01b031681565b620001b6620002ef366004620012b2565b62001023565b620001b662000306366004620012b2565b620010a7565b6000546001600160a01b031662000182565b620001826200032f3660046200155b565b6007602052600090815260409020546001600160a01b031681565b6200027e6200035b366004620016eb565b6200112b565b683635c9adc5dea000006200027e565b6200038862000382366004620012b2565b6200115d565b6040516200019691906200171a565b6006546200027e565b620001b6620003b1366004620012b2565b620011cb565b620003c16200120f565b6001600160a01b038116620004155760405162461bcd60e51b8152602060048201526015602482015274496e76616c6964205741564158206164647265737360581b60448201526064015b60405180910390fd5b600580546001600160a01b0319166001600160a01b0392909216919091179055565b620004416200120f565b6001600160a01b0381166200048f5760405162461bcd60e51b8152602060048201526013602482015272496e76616c696420444558206164647265737360681b60448201526064016200040c565b600480546001600160a01b0319166001600160a01b0392909216919091179055565b620004bb6200120f565b6001600160a01b0381166200050c5760405162461bcd60e51b8152602060048201526016602482015275496e76616c6964206f7261636c65206164647265737360501b60448201526064016200040c565b600280546001600160a01b0319166001600160a01b0392909216919091179055565b6000845111620005815760405162461bcd60e51b815260206004820152601960248201527f46756e64206e616d652063616e6e6f7420626520656d7074790000000000000060448201526064016200040c565b6000835111620005d45760405162461bcd60e51b815260206004820152601b60248201527f46756e64207469636b65722063616e6e6f7420626520656d707479000000000060448201526064016200040c565b6000825111620006275760405162461bcd60e51b815260206004820152601c60248201527f4d7573742068617665206174206c65617374206f6e6520746f6b656e0000000060448201526064016200040c565b6014825111156200067b5760405162461bcd60e51b815260206004820152601a60248201527f4d6178696d756d20323020746f6b656e73207065722066756e6400000000000060448201526064016200040c565b8051825114620006dc5760405162461bcd60e51b815260206004820152602560248201527f546f6b656e7320616e642077656967687461676573206c656e677468206d69736044820152640dac2e8c6d60db1b60648201526084016200040c565b6000805b8351811015620008de5760006001600160a01b03168482815181106200070a576200070a6200172f565b60200260200101516001600160a01b031603620007625760405162461bcd60e51b8152602060048201526015602482015274496e76616c696420746f6b656e206164647265737360581b60448201526064016200040c565b60008382815181106200077957620007796200172f565b602002602001015111620007d05760405162461bcd60e51b815260206004820181905260248201527f576569676874616765206d7573742062652067726561746572207468616e203060448201526064016200040c565b828181518110620007e557620007e56200172f565b602002602001015182620007fa91906200175b565b915060006200080b8260016200175b565b90505b8451811015620008c8578481815181106200082d576200082d6200172f565b60200260200101516001600160a01b03168583815181106200085357620008536200172f565b60200260200101516001600160a01b031603620008b35760405162461bcd60e51b815260206004820152601c60248201527f4475706c696361746520746f6b656e73206e6f7420616c6c6f7765640000000060448201526064016200040c565b80620008bf8162001771565b9150506200080e565b5080620008d58162001771565b915050620006e0565b508061271014620009325760405162461bcd60e51b815260206004820152601c60248201527f546f74616c20776569676874616765206d75737420626520313030250000000060448201526064016200040c565b6001546040516370a0823160e01b8152336004820152683635c9adc5dea00000916001600160a01b0316906370a0823190602401602060405180830381865afa15801562000984573d6000803e3d6000fd5b505050506040513d601f19601f82011682018060405250810190620009aa91906200178d565b101562000a115760405162461bcd60e51b815260206004820152602e60248201527f496e73756666696369656e74204147492062616c616e636520666f722066756e60448201526d64206372656174696f6e2066656560901b60648201526084016200040c565b60015460405163079cc67960e41b8152336004820152683635c9adc5dea0000060248201526001600160a01b03909116906379cc679090604401600060405180830381600087803b15801562000a6657600080fd5b505af115801562000a7b573d6000803e3d6000fd5b5050600254600354600454600554604051600096508b95508a948a948a9433946001600160a01b0393841694928416939182169291169062000abd906200128e565b62000ad199989796959493929190620017a7565b604051809103906000f08015801562000aee573d6000803e3d6000fd5b506006805460018082019092557ff652222313e28459528d920b65115c16c04f3efc82aaedc97be59f3f377c0d3f810180546001600160a01b0385166001600160a01b03199182168117909255600083815260076020908152604080832080549094169094179092553380825260088352838220805496870181558252919020909301829055519293509182907fed347e9f5d6a8c19fdf08c48cd262b1de465d28cb92c4032b2af21f0d3eef93f9062000bb0908b908b9088908c906200183e565b60405180910390a350505050505050565b6000606080606080600680549050861062000c155760405162461bcd60e51b8152602060048201526013602482015272119d5b9908191bd95cc81b9bdd08195e1a5cdd606a1b60448201526064016200040c565b60006006878154811062000c2d5762000c2d6200172f565b600091825260208220015460408051639ce1413b60e01b815290516001600160a01b0390921698508893508392639ce1413b926004808401938290030181865afa15801562000c80573d6000803e3d6000fd5b505050506040513d6000823e601f3d908101601f1916820160405262000caa919081019062001897565b9450806001600160a01b031663c0e547a36040518163ffffffff1660e01b8152600401600060405180830381865afa15801562000ceb573d6000803e3d6000fd5b505050506040513d6000823e601f3d908101601f1916820160405262000d15919081019062001897565b9350806001600160a01b031663d95bd6c96040518163ffffffff1660e01b8152600401600060405180830381865afa15801562000d56573d6000803e3d6000fd5b505050506040513d6000823e601f3d908101601f1916820160405262000d80919081019062001984565b9250806001600160a01b03166341b6b81e6040518163ffffffff1660e01b8152600401600060405180830381865afa15801562000dc1573d6000803e3d6000fd5b505050506040513d6000823e601f3d908101601f1916820160405262000deb9190810190620019c5565b9050809250505091939590929450565b62000e056200120f565b62000e1160006200123e565b565b600654606090831062000e695760405162461bcd60e51b815260206004820152601960248201527f537461727420696e646578206f7574206f6620626f756e64730000000000000060448201526064016200040c565b60065482111562000ebd5760405162461bcd60e51b815260206004820152601760248201527f456e6420696e646578206f7574206f6620626f756e647300000000000000000060448201526064016200040c565b8183111562000f055760405162461bcd60e51b8152602060048201526013602482015272496e76616c696420696e6465782072616e676560681b60448201526064016200040c565b600062000f13848462001a8c565b905060008167ffffffffffffffff81111562000f335762000f33620012d9565b60405190808252806020026020018201604052801562000f5d578160200160208202803683370190505b50905060005b8281101562000fed57600662000f7a82886200175b565b8154811062000f8d5762000f8d6200172f565b9060005260206000200160009054906101000a90046001600160a01b031682828151811062000fc05762000fc06200172f565b6001600160a01b03909216602092830291909101909101528062000fe48162001771565b91505062000f63565b509150505b92915050565b600681815481106200100957600080fd5b6000918252602090912001546001600160a01b0316905081565b6200102d6200120f565b6001600160a01b038116620010855760405162461bcd60e51b815260206004820152601860248201527f496e76616c69642074726561737572792061646472657373000000000000000060448201526064016200040c565b600380546001600160a01b0319166001600160a01b0392909216919091179055565b620010b16200120f565b6001600160a01b038116620011095760405162461bcd60e51b815260206004820152601960248201527f496e76616c69642041474920746f6b656e20616464726573730000000000000060448201526064016200040c565b600180546001600160a01b0319166001600160a01b0392909216919091179055565b600860205281600052604060002081815481106200114857600080fd5b90600052602060002001600091509150505481565b6001600160a01b038116600090815260086020908152604091829020805483518184028101840190945280845260609392830182828015620011bf57602002820191906000526020600020905b815481526020019060010190808311620011aa575b50505050509050919050565b620011d56200120f565b6001600160a01b0381166200120157604051631e4fbdf760e01b8152600060048201526024016200040c565b6200120c816200123e565b50565b6000546001600160a01b0316331462000e115760405163118cdaa760e01b81523360048201526024016200040c565b600080546001600160a01b038381166001600160a01b0319831681178455604051919092169283917f8be0079c531659141344cd1fd0a4f28419497f9722a3daafe3b4186f6b6457e09190a35050565b6143178062001aa383390190565b6001600160a01b03811681146200120c57600080fd5b600060208284031215620012c557600080fd5b8135620012d2816200129c565b9392505050565b634e487b7160e01b600052604160045260246000fd5b604051601f8201601f1916810167ffffffffffffffff811182821017156200131b576200131b620012d9565b604052919050565b600067ffffffffffffffff821115620013405762001340620012d9565b50601f01601f191660200190565b600082601f8301126200136057600080fd5b813562001377620013718262001323565b620012ef565b8181528460208386010111156200138d57600080fd5b816020850160208301376000918101602001919091529392505050565b600067ffffffffffffffff821115620013c757620013c7620012d9565b5060051b60200190565b600082601f830112620013e357600080fd5b81356020620013f66200137183620013aa565b82815260059290921b840181019181810190868411156200141657600080fd5b8286015b848110156200143357803583529183019183016200141a565b509695505050505050565b600080600080608085870312156200145557600080fd5b843567ffffffffffffffff808211156200146e57600080fd5b6200147c888389016200134e565b95506020915081870135818111156200149457600080fd5b620014a289828a016200134e565b955050604087013581811115620014b857600080fd5b8701601f81018913620014ca57600080fd5b8035620014db6200137182620013aa565b81815260059190911b8201840190848101908b831115620014fb57600080fd5b928501925b828410156200152657833562001516816200129c565b8252928501929085019062001500565b965050505060608701359150808211156200154057600080fd5b506200154f87828801620013d1565b91505092959194509250565b6000602082840312156200156e57600080fd5b5035919050565b60005b838110156200159257818101518382015260200162001578565b50506000910152565b60008151808452620015b581602086016020860162001575565b601f01601f19169290920160200192915050565b600081518084526020808501945080840160005b83811015620016045781516001600160a01b031687529582019590820190600101620015dd565b509495945050505050565b600081518084526020808501945080840160005b83811015620016045781518752958201959082019060010162001623565b6001600160a01b038616815260a06020820181905260009062001667908301876200159b565b82810360408401526200167b81876200159b565b90508281036060840152620016918186620015c9565b90508281036080840152620016a781856200160f565b98975050505050505050565b60008060408385031215620016c757600080fd5b50508035926020909101359150565b602081526000620012d26020830184620015c9565b60008060408385031215620016ff57600080fd5b82356200170c816200129c565b946020939093013593505050565b602081526000620012d260208301846200160f565b634e487b7160e01b600052603260045260246000fd5b634e487b7160e01b600052601160045260246000fd5b8082018082111562000ff25762000ff262001745565b60006001820162001786576200178662001745565b5060010190565b600060208284031215620017a057600080fd5b5051919050565b6000610120808352620017bd8184018d6200159b565b90508281036020840152620017d3818c6200159b565b90508281036040840152620017e9818b620015c9565b90508281036060840152620017ff818a6200160f565b6001600160a01b03988916608085015296881660a0840152505092851660c084015290841660e083015290921661010090920191909152949350505050565b6080815260006200185360808301876200159b565b82810360208401526200186781876200159b565b6001600160a01b0386166040850152838103606085015290506200188c8185620015c9565b979650505050505050565b600060208284031215620018aa57600080fd5b815167ffffffffffffffff811115620018c257600080fd5b8201601f81018413620018d457600080fd5b8051620018e5620013718262001323565b818152856020838501011115620018fb57600080fd5b6200190e82602083016020860162001575565b95945050505050565b600082601f8301126200192957600080fd5b815160206200193c6200137183620013aa565b82815260059290921b840181019181810190868411156200195c57600080fd5b8286015b848110156200143357805162001976816200129c565b835291830191830162001960565b6000602082840312156200199757600080fd5b815167ffffffffffffffff811115620019af57600080fd5b620019bd8482850162001917565b949350505050565b60008060408385031215620019d957600080fd5b825167ffffffffffffffff80821115620019f257600080fd5b62001a008683870162001917565b935060209150818501518181111562001a1857600080fd5b85019050601f8101861362001a2c57600080fd5b805162001a3d6200137182620013aa565b81815260059190911b8201830190838101908883111562001a5d57600080fd5b928401925b8284101562001a7d5783518252928401929084019062001a62565b80955050505050509250929050565b8181038181111562000ff25762000ff26200174556fe60806040523480156200001157600080fd5b50604051620043173803806200431783398101604081905262000034916200062e565b8489896003620000458382620007d4565b506004620000548282620007d4565b5050506001600160a01b0381166200008757604051631e4fbdf760e01b8152600060048201526024015b60405180910390fd5b620000928162000364565b508551875114620000f45760405162461bcd60e51b815260206004820152602560248201527f546f6b656e7320616e642077656967687461676573206c656e677468206d69736044820152640dac2e8c6d60db1b60648201526084016200007e565b6000875111620001475760405162461bcd60e51b815260206004820152601c60248201527f4d7573742068617665206174206c65617374206f6e6520746f6b656e0000000060448201526064016200007e565b6006620001558a82620007d4565b506007620001648982620007d4565b5086516200017a9060089060208a0190620003b6565b50600980546001600160a01b03199081166001600160a01b0388811691909117909255600a80548216878416179055601080548216868416179055600b80548216858416179055600c80549091169183169190911790556000805b8851811015620002f0576000888281518110620001f657620001f6620008a0565b6020026020010151116200024d5760405162461bcd60e51b815260206004820181905260248201527f576569676874616765206d7573742062652067726561746572207468616e203060448201526064016200007e565b878181518110620002625762000262620008a0565b6020026020010151600e60008b8481518110620002835762000283620008a0565b60200260200101516001600160a01b03166001600160a01b0316815260200190815260200160002081905550878181518110620002c457620002c4620008a0565b602002602001015182620002d99190620008cc565b915080620002e781620008e8565b915050620001d5565b506127108114620003445760405162461bcd60e51b815260206004820152601c60248201527f546f74616c20776569676874616765206d75737420626520313030250000000060448201526064016200007e565b600f819055620003548662000364565b5050505050505050505062000904565b600580546001600160a01b038381166001600160a01b0319831681179093556040519116919082907f8be0079c531659141344cd1fd0a4f28419497f9722a3daafe3b4186f6b6457e090600090a35050565b8280548282559060005260206000209081019282156200040e579160200282015b828111156200040e57825182546001600160a01b0319166001600160a01b03909116178255602090920191600190910190620003d7565b506200041c92915062000420565b5090565b5b808211156200041c576000815560010162000421565b634e487b7160e01b600052604160045260246000fd5b604051601f8201601f191681016001600160401b038111828210171562000478576200047862000437565b604052919050565b600082601f8301126200049257600080fd5b81516001600160401b03811115620004ae57620004ae62000437565b6020620004c4601f8301601f191682016200044d565b8281528582848701011115620004d957600080fd5b60005b83811015620004f9578581018301518282018401528201620004dc565b506000928101909101919091529392505050565b60006001600160401b0382111562000529576200052962000437565b5060051b60200190565b80516001600160a01b03811681146200054b57600080fd5b919050565b600082601f8301126200056257600080fd5b815160206200057b62000575836200050d565b6200044d565b82815260059290921b840181019181810190868411156200059b57600080fd5b8286015b84811015620005c157620005b38162000533565b83529183019183016200059f565b509695505050505050565b600082601f830112620005de57600080fd5b81516020620005f162000575836200050d565b82815260059290921b840181019181810190868411156200061157600080fd5b8286015b84811015620005c1578051835291830191830162000615565b60008060008060008060008060006101208a8c0312156200064e57600080fd5b89516001600160401b03808211156200066657600080fd5b620006748d838e0162000480565b9a5060208c01519150808211156200068b57600080fd5b620006998d838e0162000480565b995060408c0151915080821115620006b057600080fd5b620006be8d838e0162000550565b985060608c0151915080821115620006d557600080fd5b50620006e48c828d01620005cc565b965050620006f560808b0162000533565b94506200070560a08b0162000533565b93506200071560c08b0162000533565b92506200072560e08b0162000533565b9150620007366101008b0162000533565b90509295985092959850929598565b600181811c908216806200075a57607f821691505b6020821081036200077b57634e487b7160e01b600052602260045260246000fd5b50919050565b601f821115620007cf57600081815260208120601f850160051c81016020861015620007aa5750805b601f850160051c820191505b81811015620007cb57828155600101620007b6565b5050505b505050565b81516001600160401b03811115620007f057620007f062000437565b620008088162000801845462000745565b8462000781565b602080601f831160018114620008405760008415620008275750858301515b600019600386901b1c1916600185901b178555620007cb565b600085815260208120601f198616915b82811015620008715788860151825594840194600190910190840162000850565b5085821015620008905787850151600019600388901b60f8161c191681555b5050505050600190811b01905550565b634e487b7160e01b600052603260045260246000fd5b634e487b7160e01b600052601160045260246000fd5b80820180821115620008e257620008e2620008b6565b92915050565b600060018201620008fd57620008fd620008b6565b5060010190565b613a0380620009146000396000f3fe6080604052600436106102605760003560e01c8063715018a611610144578063a9059cbb116100b6578063dd62ed3e1161007a578063dd62ed3e146106cb578063e4849b3214610711578063f09d14d714610731578063f2fde38b14610755578063f359ced514610775578063fb5825ba146107ab57600080fd5b8063a9059cbb14610649578063c0e547a314610669578063cfa498a31461067e578063d95bd6c914610694578063da23eb63146106b657600080fd5b806395d89b411161010857806395d89b41146105cd5780639ce1413b146105e2578063a3bf224b146105f7578063a525ad3c14610617578063a5c6e8ed1461062c578063a6f2ae3a1461064157600080fd5b8063715018a61461055a5780637dc0d1d01461056f5780637f51bb1f1461058f57806383d5e726146102fb5780638da5cb5b146105af57600080fd5b80632a033d2a116101dd5780634e1d486b116101a15780634e1d486b146104745780634fb8d7491461048a578063523fba7f146104b757806361d027b3146104e4578063692058c21461050457806370a082311461052457600080fd5b80632a033d2a146103ca5780632be01190146103df578063313ce567146103ff5780633aecd0e31461041b57806341b6b81e1461045157600080fd5b806318160ddd1161022457806318160ddd1461033e5780631bd60900146103535780631cb44dfc1461037557806323b872dd1461039557806324dd7c93146103b557600080fd5b806302d05d3f1461026c57806306fdde03146102a9578063095ea7b3146102cb5780630d1f2403146102fb578063117be4c21461031e57600080fd5b3661026757005b600080fd5b34801561027857600080fd5b5060095461028c906001600160a01b031681565b6040516001600160a01b0390911681526020015b60405180910390f35b3480156102b557600080fd5b506102be6107cb565b6040516102a091906133ae565b3480156102d757600080fd5b506102eb6102e6366004613418565b61085d565b60405190151581526020016102a0565b34801561030757600080fd5b50610310601981565b6040519081526020016102a0565b34801561032a57600080fd5b50600c5461028c906001600160a01b031681565b34801561034a57600080fd5b50600254610310565b34801561035f57600080fd5b5061037361036e366004613442565b610877565b005b34801561038157600080fd5b50610373610390366004613442565b6108f2565b3480156103a157600080fd5b506102eb6103b0366004613464565b61096b565b3480156103c157600080fd5b506102eb61098f565b3480156103d657600080fd5b50610310610a02565b3480156103eb57600080fd5b506103736103fa366004613576565b610bdb565b34801561040b57600080fd5b50604051601281526020016102a0565b34801561042757600080fd5b50610310610436366004613442565b6001600160a01b03166000908152600d602052604090205490565b34801561045d57600080fd5b50610466611312565b6040516102a09291906136aa565b34801561048057600080fd5b50610310600f5481565b34801561049657600080fd5b506103106104a5366004613442565b600e6020526000908152604090205481565b3480156104c357600080fd5b506103106104d2366004613442565b600d6020526000908152604090205481565b3480156104f057600080fd5b5060105461028c906001600160a01b031681565b34801561051057600080fd5b50600b5461028c906001600160a01b031681565b34801561053057600080fd5b5061031061053f366004613442565b6001600160a01b031660009081526020819052604090205490565b34801561056657600080fd5b5061037361143a565b34801561057b57600080fd5b50600a5461028c906001600160a01b031681565b34801561059b57600080fd5b506103736105aa366004613442565b61144e565b3480156105bb57600080fd5b506005546001600160a01b031661028c565b3480156105d957600080fd5b506102be6114ce565b3480156105ee57600080fd5b506102be6114dd565b34801561060357600080fd5b5061028c6106123660046136d8565b61156b565b34801561062357600080fd5b50610310606481565b34801561063857600080fd5b5061031060c881565b610373611595565b34801561065557600080fd5b506102eb610664366004613418565b61178c565b34801561067557600080fd5b506102be61179a565b34801561068a57600080fd5b5061031061271081565b3480156106a057600080fd5b506106a96117a7565b6040516102a091906136f1565b3480156106c257600080fd5b50610310603281565b3480156106d757600080fd5b506103106106e6366004613704565b6001600160a01b03918216600090815260016020908152604080832093909416825291909152205490565b34801561071d57600080fd5b5061037361072c3660046136d8565b611808565b34801561073d57600080fd5b50610746611a7a565b6040516102a093929190613737565b34801561076157600080fd5b50610373610770366004613442565b611c49565b34801561078157600080fd5b50610310610790366004613442565b6001600160a01b03166000908152600e602052604090205490565b3480156107b757600080fd5b506103106107c6366004613442565b611c87565b6060600380546107da90613770565b80601f016020809104026020016040519081016040528092919081815260200182805461080690613770565b80156108535780601f1061082857610100808354040283529160200191610853565b820191906000526020600020905b81548152906001019060200180831161083657829003601f168201915b5050505050905090565b60003361086b818585611ca5565b60019150505b92915050565b61087f611cb7565b6001600160a01b0381166108d05760405162461bcd60e51b8152602060048201526013602482015272496e76616c696420444558206164647265737360681b60448201526064015b60405180910390fd5b600b80546001600160a01b0319166001600160a01b0392909216919091179055565b6108fa611cb7565b6001600160a01b0381166109495760405162461bcd60e51b8152602060048201526016602482015275496e76616c6964206f7261636c65206164647265737360501b60448201526064016108c7565b600a80546001600160a01b0319166001600160a01b0392909216919091179055565b600033610979858285611ce4565b610984858585611d62565b506001949350505050565b600080805b6008548110156109f857600e6000600883815481106109b5576109b56137a4565b60009182526020808320909101546001600160a01b031683528201929092526040019020546109e490836137d0565b9150806109f0816137e3565b915050610994565b5061271014919050565b6000610a0d60025490565b600003610a1a5750600090565b6000805b600854811015610bd557600060088281548110610a3d57610a3d6137a4565b60009182526020808320909101546001600160a01b0316808352600d9091526040909120549091508015610bc057600a546040516341976e0960e01b81526001600160a01b03848116600483015260009216906341976e0990602401602060405180830381865afa158015610ab6573d6000803e3d6000fd5b505050506040513d601f19601f82011682018060405250810190610ada91906137fc565b600a546040516341976e0960e01b81526000600482018190529293506001600160a01b03909116906341976e0990602401602060405180830381865afa158015610b28573d6000803e3d6000fd5b505050506040513d601f19601f82011682018060405250810190610b4c91906137fc565b9050600082118015610b5e5750600081115b15610bb05760006305f5e100610b748486613815565b610b7e919061382c565b9050600082610b91836305f5e100613815565b610b9b919061382c565b9050610ba781896137d0565b97505050610bbd565b610bba83876137d0565b95505b50505b50508080610bcd906137e3565b915050610a1e565b50919050565b610be3611cb7565b8051825114610c425760405162461bcd60e51b815260206004820152602560248201527f546f6b656e7320616e642077656967687461676573206c656e677468206d69736044820152640dac2e8c6d60db1b60648201526084016108c7565b6000825111610c935760405162461bcd60e51b815260206004820152601c60248201527f4d7573742068617665206174206c65617374206f6e6520746f6b656e0000000060448201526064016108c7565b600b546001600160a01b0316610cbb5760405162461bcd60e51b81526004016108c79061384e565b6000805b8351811015610d6a576000838281518110610cdc57610cdc6137a4565b602002602001015111610d315760405162461bcd60e51b815260206004820181905260248201527f576569676874616765206d7573742062652067726561746572207468616e203060448201526064016108c7565b828181518110610d4357610d436137a4565b602002602001015182610d5691906137d0565b915080610d62816137e3565b915050610cbf565b506127108114610dbc5760405162461bcd60e51b815260206004820152601c60248201527f546f74616c20776569676874616765206d75737420626520313030250000000060448201526064016108c7565b6000306001600160a01b0316632a033d2a6040518163ffffffff1660e01b8152600401602060405180830381865afa158015610dfc573d6000803e3d6000fd5b505050506040513d601f19601f82011682018060405250810190610e2091906137fc565b905060008111610e725760405162461bcd60e51b815260206004820152601a60248201527f4e6f2066756e642076616c756520746f20726562616c616e636500000000000060448201526064016108c7565b6000845167ffffffffffffffff811115610e8e57610e8e6134a0565b604051908082528060200260200182016040528015610eb7578160200160208202803683370190505b50905060005b8551811015611084576000868281518110610eda57610eda6137a4565b602002602001015190506000612710878481518110610efb57610efb6137a4565b602002602001015186610f0e9190613815565b610f18919061382c565b600a546040516341976e0960e01b81526001600160a01b038581166004830152929350600092909116906341976e0990602401602060405180830381865afa158015610f68573d6000803e3d6000fd5b505050506040513d601f19601f82011682018060405250810190610f8c91906137fc565b600a546040516341976e0960e01b81526000600482018190529293506001600160a01b03909116906341976e0990602401602060405180830381865afa158015610fda573d6000803e3d6000fd5b505050506040513d601f19601f82011682018060405250810190610ffe91906137fc565b90506000821180156110105750600081115b1561104d57816110208285613815565b61102a919061382c565b86868151811061103c5761103c6137a4565b60200260200101818152505061106d565b82868681518110611060576110606137a4565b6020026020010181815250505b50505050808061107c906137e3565b915050610ebd565b5060005b855181101561124f5760008682815181106110a5576110a56137a4565b602002602001015190506000600d6000836001600160a01b03166001600160a01b0316815260200190815260200160002054905060008484815181106110ed576110ed6137a4565b6020026020010151905080821461123957808211156111525760006111128284613873565b9050801561114c5760006111268583611dc1565b9050801561114a576001600160a01b0385166000908152600d602052604090208390555b505b50611239565b818111156112395760006111668383613873565b9050801561123757600061117a8583612065565b90506000811180156111f65750600c546040516370a0823160e01b815230600482015282916001600160a01b0316906370a0823190602401602060405180830381865afa1580156111cf573d6000803e3d6000fd5b505050506040513d601f19601f820116820180604052508101906111f391906137fc565b10155b156112355760006112078683612327565b905080156112335761121981866137d0565b6001600160a01b0387166000908152600d60205260409020555b505b505b505b5050508080611247906137e3565b915050611088565b5060005b85518110156112cb5784818151811061126e5761126e6137a4565b6020026020010151600e600088848151811061128c5761128c6137a4565b60200260200101516001600160a01b03166001600160a01b031681526020019081526020016000208190555080806112c3906137e3565b915050611253565b50600f8390556040517fe62c3b4fb96e6461a60aae181b58c3bea82937a33a60ed89e592c0a4b4933aa99061130390879087906136aa565b60405180910390a15050505050565b606080600880548060200260200160405190810160405280929190818152602001828054801561136b57602002820191906000526020600020905b81546001600160a01b0316815260019091019060200180831161134d575b5050600854939550505067ffffffffffffffff821115905061138f5761138f6134a0565b6040519080825280602002602001820160405280156113b8578160200160208202803683370190505b50905060005b60085481101561143557600e6000600883815481106113df576113df6137a4565b60009182526020808320909101546001600160a01b031683528201929092526040019020548251839083908110611418576114186137a4565b60209081029190910101528061142d816137e3565b9150506113be565b509091565b611442611cb7565b61144c6000612580565b565b611456611cb7565b6001600160a01b0381166114ac5760405162461bcd60e51b815260206004820152601860248201527f496e76616c69642074726561737572792061646472657373000000000000000060448201526064016108c7565b601080546001600160a01b0319166001600160a01b0392909216919091179055565b6060600480546107da90613770565b600680546114ea90613770565b80601f016020809104026020016040519081016040528092919081815260200182805461151690613770565b80156115635780601f1061153857610100808354040283529160200191611563565b820191906000526020600020905b81548152906001019060200180831161154657829003601f168201915b505050505081565b6008818154811061157b57600080fd5b6000918252602090912001546001600160a01b0316905081565b600034116115d65760405162461bcd60e51b815260206004820152600e60248201526d09aeae6e840e6cadcc84082ac82b60931b60448201526064016108c7565b60085461161c5760405162461bcd60e51b81526020600482015260146024820152734e6f20756e6465726c79696e6720746f6b656e7360601b60448201526064016108c7565b600061271061162c606434613815565b611636919061382c565b905060006116448234613873565b90506000611651826125d2565b905061165d33826126c7565b61166683612701565b600c60009054906101000a90046001600160a01b03166001600160a01b031663d0e30db0836040518263ffffffff1660e01b81526004016000604051808303818588803b1580156116b657600080fd5b505af11580156116ca573d6000803e3d6000fd5b5050600c546040516370a0823160e01b815230600482015261174494506001600160a01b0390911692506370a082319150602401602060405180830381865afa15801561171b573d6000803e3d6000fd5b505050506040513d601f19601f8201168201806040525081019061173f91906137fc565b612903565b604080513481526020810183905290810184905233907f0f18542593f463db9b35ce49dfef2fa3e7b5976b7dbfd9a901dd384d2da16da49060600160405180910390a2505050565b60003361086b818585611d62565b600780546114ea90613770565b6060600880548060200260200160405190810160405280929190818152602001828054801561085357602002820191906000526020600020905b81546001600160a01b031681526001909101906020018083116117e1575050505050905090565b600081116118285760405162461bcd60e51b81526004016108c790613886565b336000908152602081905260409020548111156118875760405162461bcd60e51b815260206004820152601860248201527f496e73756666696369656e742066756e6420746f6b656e73000000000000000060448201526064016108c7565b600061189260025490565b116118df5760405162461bcd60e51b815260206004820152601d60248201527f4e6f2066756e6420746f6b656e7320696e2063697263756c6174696f6e00000060448201526064016108c7565b60006118ea60025490565b6118fc83670de0b6b3a7640000613815565b611906919061382c565b9050600061191382612c44565b90506000811161195a5760405162461bcd60e51b81526020600482015260126024820152712737903b30b63ab2903a37903932ba3ab93760711b60448201526064016108c7565b600061271061196a606484613815565b611974919061382c565b905060006119828284613873565b905061198e338661305e565b61199782612701565b604051600090339083908381818185875af1925050503d80600081146119d9576040519150601f19603f3d011682016040523d82523d6000602084013e6119de565b606091505b5050905080611a2f5760405162461bcd60e51b815260206004820152601760248201527f4661696c656420746f207472616e73666572204156415800000000000000000060448201526064016108c7565b604080518781526020810184905290810184905233907fcb8b579dfe6e9168d68023b09b7de38effbd57bc37422ed8b5718ca997730d589060600160405180910390a2505050505050565b60608060606008805480602002602001604051908101604052809291908181526020018280548015611ad557602002820191906000526020600020905b81546001600160a01b03168152600190910190602001808311611ab7575b5050600854939650505067ffffffffffffffff8211159050611af957611af96134a0565b604051908082528060200260200182016040528015611b22578160200160208202803683370190505b5060085490925067ffffffffffffffff811115611b4157611b416134a0565b604051908082528060200260200182016040528015611b6a578160200160208202803683370190505b50905060005b600854811015611c4357600d600060088381548110611b9157611b916137a4565b60009182526020808320909101546001600160a01b031683528201929092526040019020548351849083908110611bca57611bca6137a4565b602002602001018181525050600e600060088381548110611bed57611bed6137a4565b60009182526020808320909101546001600160a01b031683528201929092526040019020548251839083908110611c2657611c266137a4565b602090810291909101015280611c3b816137e3565b915050611b70565b50909192565b611c51611cb7565b6001600160a01b038116611c7b57604051631e4fbdf760e01b8152600060048201526024016108c7565b611c8481612580565b50565b6001600160a01b038116600090815260208190526040812054610871565b611cb28383836001613094565b505050565b6005546001600160a01b0316331461144c5760405163118cdaa760e01b81523360048201526024016108c7565b6001600160a01b038381166000908152600160209081526040808320938616835292905220546000198114611d5c5781811015611d4d57604051637dc7a0d960e11b81526001600160a01b038416600482015260248101829052604481018390526064016108c7565b611d5c84848484036000613094565b50505050565b6001600160a01b038316611d8c57604051634b637e8f60e11b8152600060048201526024016108c7565b6001600160a01b038216611db65760405163ec442f0560e01b8152600060048201526024016108c7565b611cb2838383613169565b600b546000906001600160a01b0316611dec5760405162461bcd60e51b81526004016108c79061384e565b60008211611e0c5760405162461bcd60e51b81526004016108c790613886565b600b5460405163095ea7b360e01b81526001600160a01b039182166004820152602481018490529084169063095ea7b3906044016020604051808303816000875af1158015611e5f573d6000803e3d6000fd5b505050506040513d601f19601f82011682018060405250810190611e8391906138bd565b506040805160028082526060820183526000926020830190803683370190505090508381600081518110611eb957611eb96137a4565b6001600160a01b039283166020918202929092010152600c54825191169082906001908110611eea57611eea6137a4565b6001600160a01b039283166020918202929092010152600c546040516370a0823160e01b815230600482015260009291909116906370a0823190602401602060405180830381865afa158015611f44573d6000803e3d6000fd5b505050506040513d601f19601f82011682018060405250810190611f6891906137fc565b600b549091506001600160a01b0316635c11d7958560018530611f8d426104b06137d0565b6040518663ffffffff1660e01b8152600401611fad9594939291906138df565b600060405180830381600087803b158015611fc757600080fd5b505af1158015611fdb573d6000803e3d6000fd5b5050600c546040516370a0823160e01b8152306004820152600093506001600160a01b0390911691506370a08231906024015b602060405180830381865afa15801561202b573d6000803e3d6000fd5b505050506040513d601f19601f8201168201806040525081019061204f91906137fc565b905061205b8282613873565b9695505050505050565b600b546000906001600160a01b03166120905760405162461bcd60e51b81526004016108c79061384e565b600082116120ec5760405162461bcd60e51b815260206004820152602360248201527f546f6b656e20616d6f756e74206d75737420626520677265617465722074686160448201526206e20360ec1b60648201526084016108c7565b6040805160028082526060820183526000926020830190803683375050600c5482519293506001600160a01b03169183915060009061212d5761212d6137a4565b60200260200101906001600160a01b031690816001600160a01b0316815250508381600181518110612161576121616137a4565b6001600160a01b039283166020918202929092010152600b546040516307c0329d60e21b8152911690631f00ca74906121a0908690859060040161391b565b600060405180830381865afa9250505080156121de57506040513d6000823e601f3d908101601f191682016040526121db919081019061393c565b60015b6122f957600a546040516341976e0960e01b81526001600160a01b03868116600483015260009216906341976e0990602401602060405180830381865afa15801561222d573d6000803e3d6000fd5b505050506040513d601f19601f8201168201806040525081019061225191906137fc565b600a546040516341976e0960e01b81526000600482018190529293506001600160a01b03909116906341976e0990602401602060405180830381865afa15801561229f573d6000803e3d6000fd5b505050506040513d601f19601f820116820180604052508101906122c391906137fc565b90506000821180156122d55750600081115b156122f257806122e58387613815565b6122ef919061382c565b93505b5050612320565b80511561231e5780600081518110612313576123136137a4565b602002602001015192505b505b5092915050565b600b546000906001600160a01b03166123525760405162461bcd60e51b81526004016108c79061384e565b600082116123725760405162461bcd60e51b81526004016108c790613886565b600c54600b5460405163095ea7b360e01b81526001600160a01b0391821660048201526024810185905291169063095ea7b3906044016020604051808303816000875af11580156123c7573d6000803e3d6000fd5b505050506040513d601f19601f820116820180604052508101906123eb91906138bd565b506040805160028082526060820183526000926020830190803683375050600c5482519293506001600160a01b03169183915060009061242d5761242d6137a4565b60200260200101906001600160a01b031690816001600160a01b0316815250508381600181518110612461576124616137a4565b6001600160a01b0392831660209182029290920101526040516370a0823160e01b81523060048201526000918616906370a0823190602401602060405180830381865afa1580156124b6573d6000803e3d6000fd5b505050506040513d601f19601f820116820180604052508101906124da91906137fc565b600b549091506001600160a01b0316635c11d79585600185306124ff426104b06137d0565b6040518663ffffffff1660e01b815260040161251f9594939291906138df565b600060405180830381600087803b15801561253957600080fd5b505af115801561254d573d6000803e3d6000fd5b50506040516370a0823160e01b8152306004820152600092506001600160a01b03881691506370a082319060240161200e565b600580546001600160a01b038381166001600160a01b0319831681179093556040519116919082907f8be0079c531659141344cd1fd0a4f28419497f9722a3daafe3b4186f6b6457e090600090a35050565b60006125dd60025490565b6000036125e8575090565b60006127106125f860c882613873565b6126029085613815565b61260c919061382c565b600a546040516341976e0960e01b81526000600482018190529293506001600160a01b03909116906341976e0990602401602060405180830381865afa15801561265a573d6000803e3d6000fd5b505050506040513d601f19601f8201168201806040525081019061267e91906137fc565b905060006305f5e1006126918385613815565b61269b919061382c565b905060006126a7613293565b9050806126b360025490565b6126bd9084613815565b61205b919061382c565b6001600160a01b0382166126f15760405163ec442f0560e01b8152600060048201526024016108c7565b6126fd60008383613169565b5050565b60006064612710603284613815565b61271a919061382c565b90506000606461272b601985613815565b612735919061382c565b905060006064612746601986613815565b612750919061382c565b905082156127fd576009546040516000916001600160a01b03169085908381818185875af1925050503d80600081146127a5576040519150601f19603f3d011682016040523d82523d6000602084013e6127aa565b606091505b50509050806127fb5760405162461bcd60e51b815260206004820152601a60248201527f4661696c656420746f2073656e642063726561746f722066656500000000000060448201526064016108c7565b505b600061280982846137d0565b11156128bc576010546000906001600160a01b031661282883856137d0565b604051600081818185875af1925050503d8060008114612864576040519150601f19603f3d011682016040523d82523d6000602084013e612869565b606091505b50509050806128ba5760405162461bcd60e51b815260206004820152601b60248201527f4661696c656420746f2073656e6420747265617375727920666565000000000060448201526064016108c7565b505b60408051848152602081018490529081018290527f312c5308f42848705a866c73dec11fd0783c2d64aac6a97e94467062ad3f40589060600160405180910390a150505050565b600081116129235760405162461bcd60e51b81526004016108c790613886565b600b546001600160a01b031661294b5760405162461bcd60e51b81526004016108c79061384e565b60085460009061295b908361382c565b905060005b600854811015611cb25760006008828154811061297f5761297f6137a4565b6000918252602090912001546001600160a01b031690508215612c30576040805160028082526060820183526000926020830190803683375050600c5482519293506001600160a01b0316918391506000906129dd576129dd6137a4565b60200260200101906001600160a01b031690816001600160a01b0316815250508181600181518110612a1157612a116137a4565b6001600160a01b039283166020918202929092010152600c54600b5460405163095ea7b360e01b815290831660048201526024810187905291169063095ea7b3906044016020604051808303816000875af1158015612a74573d6000803e3d6000fd5b505050506040513d601f19601f82011682018060405250810190612a9891906138bd565b506040516370a0823160e01b81523060048201526000906001600160a01b038416906370a0823190602401602060405180830381865afa158015612ae0573d6000803e3d6000fd5b505050506040513d601f19601f82011682018060405250810190612b0491906137fc565b600b549091506001600160a01b0316635c11d7958660018530612b29426104b06137d0565b6040518663ffffffff1660e01b8152600401612b499594939291906138df565b600060405180830381600087803b158015612b6357600080fd5b505af1925050508015612b74575060015b612b8057505050612c32565b6040516370a0823160e01b81523060048201526000906001600160a01b038516906370a0823190602401602060405180830381865afa158015612bc7573d6000803e3d6000fd5b505050506040513d601f19601f82011682018060405250810190612beb91906137fc565b90506000612bf98383613873565b6001600160a01b0386166000908152600d6020526040812080549293508392909190612c269084906137d0565b9091555050505050505b505b80612c3c816137e3565b915050612960565b600b546000906001600160a01b0316612c6f5760405162461bcd60e51b81526004016108c79061384e565b60008211612cce5760405162461bcd60e51b815260206004820152602660248201527f53656c6c2070657263656e74616765206d75737420626520677265617465722060448201526507468616e20360d41b60648201526084016108c7565b506000805b600854811015610bd557600060088281548110612cf257612cf26137a4565b60009182526020808320909101546001600160a01b0316808352600d9091526040909120549091508015613049576000670de0b6b3a7640000612d358784613815565b612d3f919061382c565b905080600003612d515750505061304c565b6040805160028082526060820183526000926020830190803683370190505090508381600081518110612d8657612d866137a4565b6001600160a01b039283166020918202929092010152600c54825191169082906001908110612db757612db76137a4565b6001600160a01b039283166020918202929092010152600b5460405163095ea7b360e01b81529082166004820152602481018490529085169063095ea7b3906044016020604051808303816000875af1158015612e18573d6000803e3d6000fd5b505050506040513d601f19601f82011682018060405250810190612e3c91906138bd565b50600c546040516370a0823160e01b81523060048201526000916001600160a01b0316906370a0823190602401602060405180830381865afa158015612e86573d6000803e3d6000fd5b505050506040513d601f19601f82011682018060405250810190612eaa91906137fc565b600b549091506001600160a01b0316635c11d7958460018530612ecf426104b06137d0565b6040518663ffffffff1660e01b8152600401612eef9594939291906138df565b600060405180830381600087803b158015612f0957600080fd5b505af1158015612f1d573d6000803e3d6000fd5b5050600c546040516370a0823160e01b8152306004820152600093506001600160a01b0390911691506370a0823190602401602060405180830381865afa158015612f6c573d6000803e3d6000fd5b505050506040513d601f19601f82011682018060405250810190612f9091906137fc565b90506000612f9e8383613873565b9050801561304357600c54604051632e1a7d4d60e01b8152600481018390526001600160a01b0390911690632e1a7d4d90602401600060405180830381600087803b158015612fec57600080fd5b505af1158015613000573d6000803e3d6000fd5b50505050808961301091906137d0565b6001600160a01b0388166000908152600d602052604081208054929b50879290919061303d908490613873565b90915550505b50505050505b50505b80613056816137e3565b915050612cd3565b6001600160a01b03821661308857604051634b637e8f60e11b8152600060048201526024016108c7565b6126fd82600083613169565b6001600160a01b0384166130be5760405163e602df0560e01b8152600060048201526024016108c7565b6001600160a01b0383166130e857604051634a1406b160e11b8152600060048201526024016108c7565b6001600160a01b0380851660009081526001602090815260408083209387168352929052208290558015611d5c57826001600160a01b0316846001600160a01b03167f8c5be1e5ebec7d5bd14f71427d1e84f3dd0314c0f7b2291e5b200ac8c7c3b9258460405161315b91815260200190565b60405180910390a350505050565b6001600160a01b03831661319457806002600082825461318991906137d0565b909155506132069050565b6001600160a01b038316600090815260208190526040902054818110156131e75760405163391434e360e21b81526001600160a01b038516600482015260248101829052604481018390526064016108c7565b6001600160a01b03841660009081526020819052604090209082900390555b6001600160a01b03821661322257600280548290039055613241565b6001600160a01b03821660009081526020819052604090208054820190555b816001600160a01b0316836001600160a01b03167fddf252ad1be2c89b69c2b068fc378daa952ba7f163c4a11628f55a4df523b3ef8360405161328691815260200190565b60405180910390a3505050565b600061329e60025490565b6000036132ab5750600090565b6000805b600854811015610bd5576000600882815481106132ce576132ce6137a4565b60009182526020808320909101546001600160a01b0316808352600d909152604090912054909150801561339957600a546040516341976e0960e01b81526001600160a01b03848116600483015260009216906341976e0990602401602060405180830381865afa158015613347573d6000803e3d6000fd5b505050506040513d601f19601f8201168201806040525081019061336b91906137fc565b905060006305f5e10061337e8385613815565b613388919061382c565b905061339481876137d0565b955050505b505080806133a6906137e3565b9150506132af565b600060208083528351808285015260005b818110156133db578581018301518582016040015282016133bf565b506000604082860101526040601f19601f8301168501019250505092915050565b80356001600160a01b038116811461341357600080fd5b919050565b6000806040838503121561342b57600080fd5b613434836133fc565b946020939093013593505050565b60006020828403121561345457600080fd5b61345d826133fc565b9392505050565b60008060006060848603121561347957600080fd5b613482846133fc565b9250613490602085016133fc565b9150604084013590509250925092565b634e487b7160e01b600052604160045260246000fd5b604051601f8201601f1916810167ffffffffffffffff811182821017156134df576134df6134a0565b604052919050565b600067ffffffffffffffff821115613501576135016134a0565b5060051b60200190565b600082601f83011261351c57600080fd5b8135602061353161352c836134e7565b6134b6565b82815260059290921b8401810191818101908684111561355057600080fd5b8286015b8481101561356b5780358352918301918301613554565b509695505050505050565b6000806040838503121561358957600080fd5b823567ffffffffffffffff808211156135a157600080fd5b818501915085601f8301126135b557600080fd5b813560206135c561352c836134e7565b82815260059290921b840181019181810190898411156135e457600080fd5b948201945b83861015613609576135fa866133fc565b825294820194908201906135e9565b9650508601359250508082111561361f57600080fd5b5061362c8582860161350b565b9150509250929050565b600081518084526020808501945080840160005b8381101561366f5781516001600160a01b03168752958201959082019060010161364a565b509495945050505050565b600081518084526020808501945080840160005b8381101561366f5781518752958201959082019060010161368e565b6040815260006136bd6040830185613636565b82810360208401526136cf818561367a565b95945050505050565b6000602082840312156136ea57600080fd5b5035919050565b60208152600061345d6020830184613636565b6000806040838503121561371757600080fd5b613720836133fc565b915061372e602084016133fc565b90509250929050565b60608152600061374a6060830186613636565b828103602084015261375c818661367a565b9050828103604084015261205b818561367a565b600181811c9082168061378457607f821691505b602082108103610bd557634e487b7160e01b600052602260045260246000fd5b634e487b7160e01b600052603260045260246000fd5b634e487b7160e01b600052601160045260246000fd5b80820180821115610871576108716137ba565b6000600182016137f5576137f56137ba565b5060010190565b60006020828403121561380e57600080fd5b5051919050565b8082028115828204841417610871576108716137ba565b60008261384957634e487b7160e01b600052601260045260246000fd5b500490565b6020808252600b908201526a111156081b9bdd081cd95d60aa1b604082015260600190565b81810381811115610871576108716137ba565b6020808252601d908201527f416d6f756e74206d7573742062652067726561746572207468616e2030000000604082015260600190565b6000602082840312156138cf57600080fd5b8151801515811461345d57600080fd5b85815284602082015260a0604082015260006138fe60a0830186613636565b6001600160a01b0394909416606083015250608001529392505050565b8281526040602082015260006139346040830184613636565b949350505050565b6000602080838503121561394f57600080fd5b825167ffffffffffffffff81111561396657600080fd5b8301601f8101851361397757600080fd5b805161398561352c826134e7565b81815260059190911b820183019083810190878311156139a457600080fd5b928401925b828410156139c2578351825292840192908401906139a9565b97965050505050505056fea264697066735822122087ef604e181bd5d2f02c3f5cb81e1aa00623964da5b4cd7e31c6eff0236d35c364736f6c63430008140033a2646970667358221220e180531515e70bcf67add8a6785c585d2a19663c5216e3228696877c7b0d0cfa64736f6c63430008140033",
  "devdoc": {
    "author": "Avanguard Index",
    "errors": {
      "OwnableInvalidOwner(address)": [
        {
          "details": "The owner is not a valid owner account. (eg. `address(0)`)"
        }
      ],
      "OwnableUnauthorizedAccount(address)": [
        {
          "details": "The caller account is not authorized to perform an operation."
        }
      ]
    },
    "kind": "dev",
    "methods": {
      "createFund(string,string,address[],uint256[])": {
        "details": "Create a new fund",
        "params": {
          "fundName": "Name of the fund",
          "fundTicker": "Ticker symbol for the fund",
          "tokens": "Array of underlying token addresses",
          "weightages": "Array of token weightages (in basis points, 100% = 10000)"
        }
      },
      "creationFee()": {
        "details": "Returns the fund creation fee."
      },
      "getCreatorFunds(address)": {
        "details": "Get all funds created by a specific creator",
        "params": {
          "creator": "The creator address"
        },
        "returns": {
          "_0": "Array of fund IDs created by the creator"
        }
      },
      "getFund(uint256)": {
        "details": "Get fund information by ID",
        "params": {
          "fundId": "The fund ID"
        },
        "returns": {
          "fundAddress": "The fund contract address",
          "fundName": "The fund name",
          "fundTicker": "The fund ticker",
          "underlyingTokens": "Array of underlying token addresses",
          "weightages": "Array of token weightages"
        }
      },
      "getFunds(uint256,uint256)": {
        "details": "Get all funds (for frontend pagination)",
        "params": {
          "endIndex": "Ending index",
          "startIndex": "Starting index"
        },
        "returns": {
          "_0": "Array of fund addresses"
        }
      },
      "getTotalFunds()": {
        "details": "Get total number of funds",
        "returns": {
          "_0": "Total number of funds created"
        }
      },
      "owner()": {
        "details": "Returns the address of the current owner."
      },
      "renounceOwnership()": {
        "details": "Leaves the contract without owner. It will not be possible to call `onlyOwner` functions. Can only be called by the current owner. NOTE: Renouncing ownership will leave the contract without an owner, thereby disabling any functionality that is only available to the owner."
      },
      "transferOwnership(address)": {
        "details": "Transfers ownership of the contract to a new account (`newOwner`). Can only be called by the current owner."
      },
      "updateAgiToken(address)": {
        "details": "Update AGI token address (only owner)",
        "params": {
          "newAgiToken": "New AGI token address"
        }
      },
      "updateDex(address)": {
        "details": "Update DEX address (only owner)",
        "params": {
          "newDex": "New DEX address"
        }
      },
      "updateOracle(address)": {
        "details": "Update oracle address (only owner)",
        "params": {
          "newOracle": "New oracle address"
        }
      },
      "updateTreasury(address)": {
        "details": "Update treasury address (only owner)",
        "params": {
          "newTreasury": "New treasury address"
        }
      },
      "updateWavax(address)": {
        "details": "Update WAVAX address (only owner)",
        "params": {
          "newWavax": "New WAVAX address"
        }
      }
    },
    "version": 1
  },
  "userdoc": {
    "kind": "user",
    "methods": {},
    "notice": "Fund Factory Contract - Creates and manages index funds",
    "version": 1
  },
  "storageLayout": {
    "storage": [
      {
        "astId": 8,
        "contract": "contracts/FundFactory.sol:FundFactory",
        "label": "_owner",
        "offset": 0,
        "slot": "0",
        "type": "t_address"
      },
      {
        "astId": 3231,
        "contract": "contracts/FundFactory.sol:FundFactory",
        "label": "agiToken",
        "offset": 0,
        "slot": "1",
        "type": "t_contract(AGIToken)1015"
      },
      {
        "astId": 3233,
        "contract": "contracts/FundFactory.sol:FundFactory",
        "label": "oracle",
        "offset": 0,
        "slot": "2",
        "type": "t_address"
      },
      {
        "astId": 3235,
        "contract": "contracts/FundFactory.sol:FundFactory",
        "label": "treasury",
        "offset": 0,
        "slot": "3",
        "type": "t_address"
      },
      {
        "astId": 3237,
        "contract": "contracts/FundFactory.sol:FundFactory",
        "label": "dex",
        "offset": 0,
        "slot": "4",
        "type": "t_address"
      },
      {
        "astId": 3239,
        "contract": "contracts/FundFactory.sol:FundFactory",
        "label": "wavax",
        "offset": 0,
        "slot": "5",
        "type": "t_address"
      },
      {
        "astId": 3243,
        "contract": "contracts/FundFactory.sol:FundFactory",
        "label": "funds",
        "offset": 0,
        "slot": "6",
        "type": "t_array(t_contract(Fund)3213)dyn_storage"
      },
      {
        "astId": 3248,
        "contract": "contracts/FundFactory.sol:FundFactory",
        "label": "fundById",
        "offset": 0,
        "slot": "7",
        "type": "t_mapping(t_uint256,t_contract(Fund)3213)"
      },
      {
        "astId": 3253,
        "contract": "contracts/FundFactory.sol:FundFactory",
        "label": "creatorFunds",
        "offset": 0,
        "slot": "8",
        "type": "t_mapping(t_address,t_array(t_uint256)dyn_storage)"
      }
    ],
    "types": {
      "t_address": {
        "encoding": "inplace",
        "label": "address",
        "numberOfBytes": "20"
      },
      "t_array(t_contract(Fund)3213)dyn_storage": {
        "base": "t_contract(Fund)3213",
        "encoding": "dynamic_array",
        "label": "contract Fund[]",
        "numberOfBytes": "32"
      },
      "t_array(t_uint256)dyn_storage": {
        "base": "t_uint256",
        "encoding": "dynamic_array",
        "label": "uint256[]",
        "numberOfBytes": "32"
      },
      "t_contract(AGIToken)1015": {
        "encoding": "inplace",
        "label": "contract AGIToken",
        "numberOfBytes": "20"
      },
      "t_contract(Fund)3213": {
        "encoding": "inplace",
        "label": "contract Fund",
        "numberOfBytes": "20"
      },
      "t_mapping(t_address,t_array(t_uint256)dyn_storage)": {
        "encoding": "mapping",
        "key": "t_address",
        "label": "mapping(address => uint256[])",
        "numberOfBytes": "32",
        "value": "t_array(t_uint256)dyn_storage"
      },
      "t_mapping(t_uint256,t_contract(Fund)3213)": {
        "encoding": "mapping",
        "key": "t_uint256",
        "label": "mapping(uint256 => contract Fund)",
        "numberOfBytes": "32",
        "value": "t_contract(Fund)3213"
      },
      "t_uint256": {
        "encoding": "inplace",
        "label": "uint256",
        "numberOfBytes": "32"
      }
    }
  }
}